:0200000270008C
:108000000000012055CC07007DCC07007FCC070085
:1080100081CC070083CC070085CC0700000000005E
:10802000000000000000000000000000998C070024
:1080300089CC0700000000008BCC070055870700A3
:10804000918D07008FCC070029CA07008FCC07004D
:108050008FCC07008FCC07008FCC07008FCC070098
:108060008FCC07008FCC07008FCC07008FCC070088
:108070008FCC07008FCC07008FCC07008FCC070078
:108080008FCC070015B307008FCC07008FCC0700FB
:10809000D1B307008FCC0700158707008FCC0700EE
:1080A0008FCC07008FCC07008FCC07008FCC070048
:1080B0008FCC07008FCC07000000000000000000FC
:1080C0008FCC07008FCC07008FCC07008FCC070028
:1080D0008FCC07008FCC07008FCC0700000000007A
:1080E0000000000000000000000000000000000090
:1080F0000000000000000000000000000000000080
:10810000000000000000000000000000000000006F
:10811000000000000000000000000000000000005F
:10812000000000000000000000000000000000004F
:10813000000000000000000000000000000000003F
:10814000000000000000000000000000000000002F
:10815000000000000000000000000000000000001F
:10816000000000000000000000000000000000000F
:1081700000000000000000000000000000000000FF
:1081800000000000000000000000000000000000EF
:1081900000000000000000000000000000000000DF
:1081A00000000000000000000000000000000000CF
:1081B00000000000000000000000000000000000BF
:1081C00000000000000000000000000000000000AF
:1081D000000000000000000000000000000000009F
:1081E000000000000000000000000000000000008F
:1081F000000000000000000000000000000000007F
:1082000010B5054C237833B9044B13B10448AFF3D0
:1082100000800123237010BD8C800020000000002E
:108220002CD5070008B5034B1BB103490348AFF336
:10823000008008BD00000000908000202CD50700C1
:10824000154B002B08BF134B9D46A3F5803A002128
:108250008B460F461348144A121A00F063F80F4B6E
:10826000002B00D098470E4B002B00D098470020E1
:10827000002104000D000D48002802D00C48AFF387
:10828000008000F02BF82000290000F095F800F0A5
:1082900011F800BF000008000000012000000000ED
:1082A000000000008C800020C0BD00200000000005
:1082B0000000000008B5074B044613B10021AFF3DE
:1082C0000080054B1868836A03B19847204600F088
:1082D00031F800BF00000000E8CF070070B50D4D79
:1082E0000D4C641BA4100026A64209D10B4D0C4C6A
:1082F00004F06EFE641BA4100026A64205D170BDDA
:1083000055F8043B98470136EEE755F8043B98478B
:108310000136F2E7848000208480002084800020E1
:108320008880002002440346934200D1704703F83E
:10833000011BF9E7FEE700BFBFF34F8F0549064B6E
:10834000CA6802F4E0621343CB60BFF34F8F00BFF3
:10835000FDE700BF00ED00E00400FA054BDF7047C9
:1083600010DF704711DF704713DF704718DF704769
:1083700060DF704769DF704761DF704708B5034B06
:108380001B68DB0700D500BEFFF7D6FFF0ED00E06D
:10839000014B1878704700BFA98000201FB500234B
:1083A000CDE901330393684602230093FFF7DEFF14
:1083B00005B05DF804FB00002DE9F0474FF0804365
:1083C00086B0D3F81CA5D3F81C25AAF1B101D1F1D0
:1083D000000949EB0109B12A1DD0D3F81C25A82AB0
:1083E00019D0D3F80044C4F34004A04DDFF8A882AC
:1083F00004F001032B704FF08043D3F81C7564B177
:10840000D3F81C654FF080430022C3F81C250222DC
:10841000C3F800241BE00124E7E74E2F03D1D3F873
:108420001C650124EEE7D3F81C25572AF7D0D8F8AD
:10843000002011688E4A914203D1D3F80024D2075C
:10844000EDD44FF08043D3F81C65652EDAD0894B0C
:108450004FF44072C3F84025874B1B68B3F5F02FEB
:1084600002D0002003F072FA00F068FB00F0ACFFCD
:10847000002000F0D5FA01F01BF878B1052000F0DB
:10848000CFFA01F027F808B103F060FA01F048F8DC
:1084900008B103F05BFA062000F0C2FA2CB9652E91
:1084A00003D00D2000F04DF904462B78002B40F04E
:1084B000C9804E3F18BF012743F208032F70186888
:1084C00000F0CAFE0646002C40F0BE80002800F0F6
:1084D000BB80D8F80030664A1A604FF4FA61204633
:1084E00000F08AFFD8F8003000221A6014B9002E7C
:1084F00040F091802C78002C00F0B080082000F033
:108500008FFABAF1B10F01D0FFF748FF4FF4F02016
:10851000FFF72AFF08B103F019FA584B58491868B9
:10852000019001A8FFF71CFF08B103F00FFA5549AD
:1085300091F816335A09EC231341DB0708D5524B47
:108540009A68002A00F086801A6842F480021A6055
:108550000C224E4B029300210DEB0200FFF7E2FECE
:1085600040F20113029A039303A94020FFF702FF90
:1085700008B103F0EBF90C2200210DEB0200FFF72C
:10858000D1FE9DF80C30029A43F0010303A9A0200C
:108590008DF80C30FFF7EEFE08B103F0D7F90C228E
:1085A00000210DEB0200FFF7BDFE01238DF80C301A
:1085B000029AF72303A92320ADF80E30FFF7DAFE65
:1085C00008B103F0C3F90C2200210DEB0200FFF704
:1085D000A9FE01238DF80C308DF80E30029A062387
:1085E00003A92020ADF81030FFF7C4FE08B103F056
:1085F000ADF902A8FFF7BCFE08B103F0A7F9A14648
:108600002878002100F0F8FE08B103F09FF92B78DC
:108610000BB1FFF7A7FE00F05FFA43F208031868FA
:1086200000F01AFE60B100F043FF48B9B9F1000F45
:1086300001D1FFF7B3FE43F20803186800F010FF02
:10864000FFF77AFE012737E7114B124843F0010389
:10865000984747E74FF480030B6079E7022000F06A
:10866000DFF9012000F0DCF9CAE700BFA980002093
:10867000D51A5A0000A0004014100010ECCF0700DB
:108680007D83070000E100E0B4BD002000800020F1
:10869000F0CF07000020A1076080002010B5FEB0D9
:1086A0004FF4FA730DF1020101A8ADF80230FFF7A3
:1086B00063FE044640B9BDF80430102B07D0112BDF
:1086C0000CD001A801F0BEF920467EB010BD054BCC
:1086D00001221A70072000F0A3F9F2E7014B18708D
:1086E0000820F8E7A880002013B501A8FFF736FEA0
:1086F000044610B9019802F013F9204602B010BDEB
:1087000008B5FFF7CBFF0528FBD1FFF7EDFF0528E4
:10871000F7D108BD0021024A084603F081B800BF26
:10872000018707004FF0A04300F5E070002243F8F6
:1087300020200322C3F83C274FF40042C3F8082549
:1087400070474FF0A043D3F8103523FA00F000F043
:10875000010070471F4A20491368013313601F4A04
:108760001068884206D11E49D069884202BF9168CC
:10877000013191604FF0A042D2F8101589045EBF1C
:1087800018491948C1F80006D2F81025C2F3403143
:1087900092041BD540F6BE22934219D9134A13689E
:1087A000591C322B116013D94FF080436522C3F856
:1087B0001C25BFF34F8F0E490E4BCA6802F4E062CE
:1087C0001343CB60BFF34F8F00BFFDE7074B19602A
:1087D000704700BFA0820020ED11BE1AC0390020F2
:1087E0001EABAD10000001403546526E9C82002049
:1087F00000ED00E00400FA054FF0A0430422C3F8A6
:10880000082508210122C3F80827C3F80C15032105
:10881000C3F80C17094B0220C3F80805C3F80C1560
:108820004FF0FF31C3F810154FF00041C3F8241585
:108830000621C3F85415C3F80025704700300040E6
:10884000094A0023136082B012680192019A074A14
:10885000C2F800354FF0A0430222C3F80C27C3F83A
:10886000082702B0704700BF0831004000300040C8
:1088700030B5154B00241C6085B01A680192019A2E
:10888000124A014410F8015BC2F81C5588420CD30F
:108890001A68002AFCD000221A601B680393039B0D
:1088A0000A4BD3F8183505B030BD10F8015BC2F89B
:1088B0001C551D68002DFCD01C601D680295029D92
:1088C000D2F81855E2E700BF083100400030004000
:1088D00037B54FF0A04315464FF000728DF80700F2
:1088E000C3F80C259DF807200C4642B14FF48022B6
:1088F000C3F80C2501210DF10700FFF7B9FF4CB1BA
:108900004FF0A0434FF48022C3F8082529462046A3
:10891000FFF7AEFF4FF0A0434FF00072C3F80825F9
:1089200003B030BD2DE9F04F0728ADF22C6D0546A0
:1089300005D008283AD0A8BB0124009402E0012306
:10894000002400930DF5F47B334940F23D42584634
:1089500004F028FB314904222A20FFF7B9FF2F49F0
:1089600004222B20FFF7B4FF00224FF0000911462C
:108970002C20FFF7ADFFC8464FF6FF7A4A464E4619
:10898000C8F307231BF8097001938FB9B8F1000FE2
:1089900009F1010940F23D410CBFD0464FF00008FB
:1089A0008945EDD10DF22C6DBDE8F08F0024C4E7B0
:1089B00002A9019B8B541144023292B2013FB2F5DD
:1089C000F07F81F80180FFB2DFD3009BD3B12F2E5F
:1089D00014DC4FF4F072002102A8FFF7A3FC24B1CD
:1089E000802200215AA8FFF79DFC4FF4F07202A9E3
:1089F0000020FFF76DFF01360022C6E74B2E01DC99
:108A00008022E8E7002CEBD1B32EEED141F6FF0235
:108A1000072D08BF9246E8E7F8CF070035D40700D6
:108A2000FFF780BF73B54FF0A0444FF000730325EC
:108A3000C4F808354FF08066C4F86457FFF7DCFED1
:108A4000C4F84857C4F80C65C4F86857164D174861
:108A500045F00105A8471648C4F80865A847002254
:108A600011461120FFF734FF1048124CA847207818
:108A700098B90190FFF756FF019802460146292058
:108A8000FFF726FF4FF0A0434FF48042C3F80C25B8
:108A90000322C3F8382702B070BD227A6168FFF75D
:108AA00017FF0C34E3E700BF40D4070000C40900FF
:108AB00000127A0048D407004FF0A041022008B508
:108AC000C1F84807C1F86807C1F83807FFF7B8FED2
:108AD000C1F8640708BD000008B5FFF7EDFF0C4BB7
:108AE00000221A604FF40032C3F87021F03303F112
:108AF000C04303F53C534FF48032C3F84823C3F816
:108B0000082301225A609A604FF08043DA6008BD62
:108B100010E000E0084B0922C3F80C254FF4203286
:108B2000C3F80425D3F8082542F00102C3F808254C
:108B300001221A60704700BF0000014008B5FFF72E
:108B4000E9FF4FF0804301220021DA600D20C3F8D5
:108B500018159A60FFF7E6FD144B4FF4C85043F028
:108B600001039847124A1E21082002F035FE08B181
:108B700002F0ECFE02F096FD0E490F4BE02081F86A
:108B800023001B684FF47A72B3FBF2F3013BB3F19D
:108B9000807F07D2094A5360002381F82300936045
:108BA00007231360BDE80840FFF73CBF40D407002F
:108BB000AC80002000ED00E06880002010E000E0C4
:108BC00038B50C4C21684B1C054612D00A484FF4AE
:108BD000805204F0D9F948B115B1206800F028F9A5
:108BE000054920684FF4806200F042F94FF0FF33EE
:108BF000236038BD64800020A48200202DE9F0416C
:108C0000DFF84480044624F47F651846D8F8003025
:108C100025F00F05AB420E46174609D0FFF7D0FFEF
:108C20000848C8F800504FF48052294604F0BAF9B9
:108C30000448C4F30B043A4631462044BDE8F041F1
:108C400004F0B0B9A48200206480002038B50D463D
:108C5000E8B90968C9B10F4CA1420BD0631A3B2B8C
:108C600011D93C22204604F09DF903E0CA5CE2548D
:108C7000013BFBD2074800223C2102F0AFFE00235B
:108C8000A0872B6038BD3D23F2E70E23F9E70123CF
:108C9000F7E700BF807F0020074A6FF002039E4580
:108CA00002D1EFF3098101E0EFF308818869A0F1B7
:108CB00002000078104700BF4D8C070038B505460C
:108CC000A8B10D4C00223C21204602F087FEA38F64
:108CD00083420ED1224604F13C0152F8040B45F8C0
:108CE000040B8A42F9D10133A387002038BD0E203E
:108CF000FCE70B20FAE700BF807F00200B2970B54E
:108D00000446154608462FD92389053304EB430151
:108D10002044431ADAB2012A26D9814224D81348C2
:108D200004F040F92388522B06D1AB0711D062889A
:108D30004AF6AF539A420CD00F2014E034F8022BBD
:108D4000824204D02E88964203F1010308D100200C
:108D500009E0218900230A344FF6FE7043F20C0526
:108D60009942EBD80B2070BD0920FCE7A4920020AB
:108D700008B5002202F032FE044A5178137843EA23
:108D80000123984214BF0B20002008BDA4920020AC
:108D90001FB54FF08043D3F8044361070CD5D3F8D7
:108DA000082103F584733AB100221A601B6801930D
:108DB000019B114B1B689847A2060AD50F4B1A68F6
:108DC0003AB1002018601B680293029B0C4B1B6891
:108DD000984763060ED50B4B1A685AB100221A60E9
:108DE0001B680393039B064B1B68012004B0BDE87E
:108DF0001040184704B010BDB0920020140100408C
:108E0000B49200201801004070B5084C0023934232
:108E100000D170BD51F82350D4F80064F607FBD59B
:108E200040F82350BFF35F8F0133F0E700E00140CB
:108E30004FF080531A69B0FBF2F302FB130373B9CE
:108E4000084B0222C3F80425C3F80805D3F8002410
:108E5000D207FBD500220448C3F804257047034815
:108E6000704700BF00E001400000AD0B0A00AD0BF1
:108E700010B5054C0123C4F80435FFF7C5FF0023E6
:108E8000C4F8043510BD00BF00E00140BFF34F8FB0
:108E90000549064BCA6802F4E0621343CB60BFF396
:108EA0004F8F00BFFDE700BF00ED00E00400FA05B2
:108EB000044B1868421C04BF034B1878831F5842A8
:108EC0005841704730010010E00F00F0074B1B784D
:108ED000062B09D1064B1B68C3F30313033B032B7B
:108EE00002D8044AD05C704700207047E00F00F0C1
:108EF000E80F00F088D4070008B5FFF7D9FF28B1C4
:108F00008D4B8E4A1B68C3F304231360FFF7DEFF0B
:108F100010B18B4B8B4A1A60FFF7CAFF28B18A4BFE
:108F20008A4A1B68C3F342331360FFF7CFFF20B1B7
:108F3000874AD36823F08073D360FFF7B9FF40B14D
:108F40004FF080430022C3F80C21C3F81021C3F86E
:108F50003825FFF7BBFF10B17E4B03221A60FFF7E5
:108F6000B5FF40B17C4B05221A6001229A670022AE
:108F70009A603F225A60794B1A68501C0BBF784B9D
:108F8000784B1A781B6802BF08331B68C3F30313BE
:108F9000062A4DD1033B032B03D8734AD35C002B25
:108FA00046D04FF08052714BD2F80414C3F820150C
:108FB000D2F80814C3F82415D2F80C14C3F82815F5
:108FC000D2F81014C3F82C15D2F81414C3F83015C5
:108FD000D2F81814C3F83415D2F81C14C3F840158D
:108FE000D2F82014C3F84415D2F82414C3F8481555
:108FF000D2F82814C3F84C15D2F82C14C3F8501525
:10900000D2F83014C3F85415D2F83414C3F86015EC
:10901000D2F83814C3F86415D2F83C14C3F86815B4
:10902000D2F84014C3F86C15D2F84424C3F8702564
:10903000FFF73EFF28B14E4B4E4A1B6803F04F032B
:109040001360FFF735FF48B14FF08043D3F8002499
:10905000D10744BF6FF00102C3F800243F4B1B68E7
:10906000062B09D13F4B1B68033B022B81BF424AB1
:10907000136843F480631360404AD2F8883043F4A5
:109080007003C2F88830BFF34F8FBFF36F8F4FF07C
:109090001023D3F80C22D2071ED5394B0122C3F876
:1090A0000425D3F80024002AFBD04FF01022D2F878
:1090B0000C3223F00103C2F80C32314B1A46D3F8BC
:1090C00000140029FBD00021C3F80415D2F80034A5
:1090D000002BFBD0FFF7DAFED3F80022002A03DBD7
:1090E000D3F80432002B23DA254B0122C3F80425E0
:1090F000D3F80024002AFBD04FF010221521C2F82B
:109100000012D3F80024002AFBD04FF010231522C0
:10911000C3F804221A4B1A46D3F800140029FBD0D6
:109120000021C3F80415D2F80034002BFBD0D1E79E
:10913000144B154A1A6008BD240300104035014045
:1091400074C007400DF0ADBA440200103C05004069
:10915000F0ED00E0A0050040105600403001001086
:10916000E00F00F03401001084D4070000C000407C
:1091700058020010E40E00403C17004000ED00E0F3
:1091800000E00140688000200090D00311DF7047AC
:1091900013DF7047064B1878012803D1012904BF5B
:1091A0000221197012B1104602F0D0BB704700BF07
:1091B000E492002070B50E4C0E4D0F4ED4F80034E2
:1091C0007BB1C4F80056C4F80456C4F80856C4F875
:1091D0000C56C4F81056C4F81456C4F81856C4F8FF
:1091E0001C5602F083FB3378023B022BE6D870BD9D
:1091F000000001403546526EE492002008B5FFF7AA
:10920000C7F888B111481C2101F022FC08B102F016
:109210009DFB0F490D4800231C2201F009FC98B169
:10922000BDE8084002F092BB4FF4FE20FFF700FEBD
:10923000072207494FF4FE20FFF71AFE054B1A7864
:10924000012A04BF02221A7008BD00BFDC92002070
:10925000E8920020E492002007B50368013303D1AF
:10926000002003B05DF804FB01A800F087F9019B22
:109270001A88012AF4D1588830B1996843F208035A
:109280000022186802F0AAFB019B5B881B1A584257
:109290005841E6E784B02DE9F34108AC84E80F00BB
:1092A0009DF82040BDF822800B9D01A8DDE90976DC
:1092B00000F064F954B9384B0122FF21A3F8028071
:1092C0009D601A809980354B1A7012E0012C17D1DD
:1092D000314BBA192A449A60A5221A80FF229A803B
:1092E0000C9AA3F80280C3E903765D619A612B4B67
:1092F0001C70FFF783FF02B0BDE8F04104B0704777
:10930000032C0FD1019A244B11881980518892683F
:109310009A60C3E90376AA2259809A805D611F4B47
:109320000122D1E7022C15D1019A1B4B1188A529E6
:109330000AD100229A60FF221A60FF229A8000223E
:10934000C3E903225A61EAE719805188926859807B
:109350009A60F2E7052C0ED1FFF71AF840B100F041
:1093600075FD08B102F0F2FA0C4B03221A70C2E745
:1093700000F0FAF9F5E7042C08D1074B00229A60B7
:10938000FF221A60019A92889A80B2E7062CB2D125
:10939000024B0422EAE700BFE8920020E49200209A
:1093A00000B5084B1B7889B043B905238DF80C3004
:1093B000079B009303AB0FCBFFF76CFF09B05DF881
:1093C00004FB00BFD89200201FB50023CDE9023373
:1093D000074B019301F0F8FA30B906494FF4FE2328
:1093E00001A84B6001F012FB05B05DF804FB00BF63
:1093F00095910700DC92002070B505460E4600F0FE
:10940000B7FF044628B935B100F07CFC0446FFF7ED
:10941000D1FE204670BDBEB10D4B0E4A0E481D70E8
:10942000294602F06FF94FF400444FF4FA7000211E
:109430004FF47A720023E4FB060103F029FC2A466C
:109440000146064802F070F900F06AF9DEE700BF55
:10945000D8920020A19307008CD40700B892002076
:1094600038B5FFF793FE08B102F070FA0F490D68A6
:109470000023012404FA03F22A4207D05A0903F018
:109480001F00203204FA00F041F822000133272B9C
:10949000F0D143F208042068FFF77AFE08B102F029
:1094A00055FA2068BDE8384000F08CB800E100E0D3
:1094B00007B501A800F062F8019B1A88A52A07D019
:1094C0009888A0F1AA035842584103B05DF804FB04
:1094D0000120FAE710B501F079F9A8B10E4B0F4859
:1094E00043F00103984701F0EDF808B102F02EFABD
:1094F00001F06CF908B102F029FA01F02FF90446E5
:1095000038B102F023FA04E001F042F904460028E1
:10951000E4D1204610BD00BF90D4070000A8610030
:1095200000B589B003AB142200211846FEF7FAFEFD
:1095300002228DF80C20002200920FC8FFF7AAFE2D
:10954000FFF738FE002009B05DF804FB13B50446B0
:1095500001A800F013F8019B1A8822805A886280C3
:109560009A68A2609A88A280DA68E2601A69226129
:109570005A6962619B69A36102B010BD014B03602F
:10958000704700BF00F00700F0B50346186880F38D
:1095900008885868FF2464B2EFF30585002D01D1D7
:1095A000A64600472546064621273FBAF0B40024C8
:1095B000002500260027F0B4F92040B2004700BF84
:1095C000F0BD00BFFFF7E0BF73B500230DF102014E
:1095D00001A8ADF80230019302F05AFEF8B9019CDF
:1095E00025785DB3174B93F83020032A28D00C263A
:1095F00006FB00F29958E9B998189D5093F830206D
:109600000132D2B283F83020BDF802300E4A9B08F6
:10961000013B043443608460084602F001F9019B79
:1096200033B128B1184602F04FFE08B102F08EF9AE
:1096300002B070BD01300428DAD1F0E70720EEE770
:109640000420ECE7049300209196070010B50C234A
:109650000B4A58431118135883B192F830308C6874
:10966000013BDBB282F8303000231350C1E90133F3
:10967000201F02F029FE08B102F068F9002010BD99
:1096800004930020084609B102F060B97047000059
:10969000214B70B50122214E1A7096F8303003B973
:1096A00070BD1E4C0025236883B1013B042B07D8F5
:1096B000DFE803F01C0612032800204600F0F8FE45
:1096C000E8B2FFF7C3FF08B102F040F90135042DFD
:1096D00004F10C04E7D1E0E7A3686360204600F0E2
:1096E00091FE0028ECD002F031F9E9E7204600F0C5
:1096F0006DFF00F049FF08B102F028F90520FFF7DF
:109700008FF9DDE700F094FF00F0B6FFBDE8704090
:109710000620FFF785B900BFD892002004930020EF
:1097200008B50E4B002283F8302011460132042A7E
:10973000C3E90111196003F10C03F7D1084800F0E7
:109740005BFE02F03DFD08B102F000F9054802F0B1
:1097500023FD08B102F0FAF8002008BD04930020B0
:1097600085960700C995070008B50020FFF76EFF32
:109770000120FFF76BFF0220FFF768FF0320FFF7D0
:1097800065FFBDE8084002F063BD006870476CDF0C
:1097900070476DDF70476EDF70476FDF704772DFB5
:1097A000704773DF704774DF704776DF704777DF8D
:1097B00070477ADF70477CDF70477FDF704786DF56
:1097C00070478FDF704790DF7047AFDF7047B0DFC3
:1097D0007047B1DF7047B2DF7047B5DF704764DFB5
:1097E000704766DF70470C2813D8DFE800F01412CA
:1097F0001212121209120712120D0B0002207047EA
:109800000320704704207047042914BF0620052058
:109810007047062070470120704702F097B810B5D6
:10982000044608460321FFF7DEFF032102462046D7
:1098300001F0A4FA18B1BDE8104002F087B810BDDD
:109840000346032B10B50846144620D0042B24D120
:1098500069B1124B18884FF6FF7398421DD013213F
:10986000FFF7A3FFC8B1BDE8104002F06FB8104683
:1098700002F010F908B102F069F8094B1B689C422C
:109880000BD101220321074801F078FAEAE7012110
:10989000FFF7A9FF01210246F5E710BD6E80002009
:1098A000F8930020A8930020F8B50A4DAB889E18C5
:1098B0001D2E14460DDC2F68FE1802F1010C07F86E
:1098C00003C07070B01C03F06DFBAB8802331A1933
:1098D000AA80F8BD58930020F0B54E4D297895B078
:1098E000002940F092804C4C019110222046FEF756
:1098F00019FD4A4B0199236018220EA8FEF712FDAC
:1099000001238DF8383028231093454B1B78002B0A
:109910007DD0444B04AC03F1100618685968224608
:1099200003C20833B3421446F7D13F4C10220DEB6B
:109930000201E01D03F028FB002868D03B4801210C
:109940000460FFF728FF08B102F000F8384B08AABE
:1099500003F1100C174618685968164603C60833F9
:1099600063453246F7D12068A2880C903148A3792C
:10997000ADF83420002101228DF836300760FFF762
:109980000CFF08B101F0E2FF03238DF84C300423F3
:109990008DF80E3041F23053ADF81030264B08AA46
:1099A0009B798DF812300DF10F0104A8FFF717FF16
:1099B000012210460DF10E01FFF776FF1F4803F05C
:1099C000FFFA1E49C2B20920FFF76EFF102208A954
:1099D0000620FFF769FF104919480EAAFFF7DFFEBE
:1099E00008B101F0B3FF164C042221780120FFF7E3
:1099F000DEFE08B101F0AAFF20780121FFF7D1FEB9
:109A000008B101F0A3FF01232B7015B0F0BD0623B0
:109A1000BEE700BFDC93002058930020389300205D
:109A2000A4930020CBD4070068930020F493002077
:109A30006F930020D8930020A893002096D40700AD
:109A40006C800020F0B504460146B1B0A34801F097
:109A5000C9F92388262B3BD80F2B04D8012B00F003
:109A6000C58031B0F0BD103B162BFAD801A252F8D8
:109A700023F000BFFD9A07000B9B0700639A0700C5
:109A80003D9B0700299C0700639A0700639A070023
:109A9000639A0700639A0700639A0700479C0700D0
:109AA000639A0700639A0700639A0700639A0700A6
:109AB000639A0700639A0700B79C0700639A070040
:109AC000A99C0700639A0700639A0700B39B0700ED
:109AD000513B9AB2052AC4D8052BC2D801A252F82C
:109AE00023F000BFF99B0700479C0700639A07001B
:109AF000639A0700C99C07009F9B0700784BA288C8
:109B00001A80784B00221A70ABE78023744CADF8B2
:109B10002430754B208832221A6010A9012309AA2B
:109B2000FFF759FE08B101F011FF704B1B780BB91C
:109B3000FFF7D2FE4FF6FF73238092E76C4B03AC26
:109B40009A79186899888DF822200790DA1DADF867
:109B500020101733264610685168254603C5083281
:109B60009A422C46F7D1634B09AA03F11807154610
:109B700018685968144603C40833BB422246F7D11B
:109B80001868206056485C4A008810AB8521CDE9F2
:109B90001456FFF712FE00283FF463AF81E0A3796B
:109BA000002B7FF45EAF4E4B13211888FFF7FDFDAD
:109BB000F1E7237A012B7FF454AF4A4B00221A704D
:109BC000494B19680139196069B910AB142218465C
:109BD000FEF7A8FB05228DF84020149A00920FC8CA
:109BE000FFF758FB3DE7FFF777FE3AE73C4B0021D4
:109BF0001888FFF7F6FDCEE7A379002B3FF431AFCD
:109C0000A27B043A022A3FF62CAF022B18BF012395
:109C10008DF840304FF4C173ADF84430304B10A98B
:109C20001888FFF7D4FDB6E7314A258A518D02F135
:109C3000180000238D420CBF014619460732A08848
:109C4000FFF7BDFDA7E7264B1C884FF6FF75AC421A
:109C500026D02A4B1B78EBB1294901230822204644
:109C6000FFF7B7FDE8B90246014602232046FFF799
:109C7000B0FDB0B92A460C212046FFF7A6FD43F2FD
:109C8000020398423FF4EDAE08283FF4EAAE1128F3
:109C900081D1E6E61A4619462046FFF79AFD7AE793
:109CA000082001F053FEDCE60D4B00221888114617
:109CB000FFF789FD6FE70023ADF84030084B10A98E
:109CC0001888FFF77EFDCCE6E188054BF729188858
:109CD00028BFF721FFF781FD5DE700BFA8930020B3
:109CE0006E800020DC93002070800020EF93002025
:109CF0006893002080930020EA930020A493002022
:109D00009C93002030B5434A434800231370434AD4
:109D100095B0137000F070FB01F07CFE0446002843
:109D200061D13F48FEF7CAFF00285FD13D4B0122B9
:109D30001A7011233C488DF8043003F041F93A4978
:109D400082B201A8FFF737FD08B101F0FFFD08223C
:109D5000002104A8FEF7E6FA344A4FF0C87304A8BD
:109D6000CDE90423FFF725FD08B101F0EFFD002147
:109D70000C2201A8FEF7D6FA0823ADF804302C4BCC
:109D800002932C482C4B039301A900F079FE08B1F3
:109D900001F0DCFD294D4022002104A8FEF7C2FAA3
:109DA000284603F00DF90595254DADF8100028461D
:109DB00003F006F90795234DADF81800284603F087
:109DC000FFF81123ADF8300004A8ADF84C300D9524
:109DD00001F01CF91C4B30221A7007225A70102215
:109DE0009A70FFF779FD204615B030BD04A8FFF743
:109DF000D0FC08B101F0AAFD9DF8113004A8013390
:109E00008DF81130FFF7C3FC002892D001F09EFDC1
:109E10008FE700BFEF93002041980700E9930020EF
:109E200068930020A493002096D40700080018002F
:109E30009D9E0700A89300201B9807009ED4070052
:109E4000A5D40700AED40700EA93002010B50F4B4D
:109E500001221A700E4B18884FF6FF73984207D0F4
:109E60001321FFF7A2FC08B101F070FD002010BD26
:109E7000084C2278002AF9D0074B1878FFF793FC9A
:109E800008B101F063FD00232370EFE7EF9300209A
:109E90006E800020DC9300206C800020F0B50B78F1
:109EA00089B005460C46092B23D8DFE813F02B00B8
:109EB000330042000A0018002400FF00080145009A
:109EC0000D0100F0B5FB0421FFF78DFC04210246D3
:109ED000284600F053FF60B101F038FD09E0FFF7BC
:109EE000B5FF08B101F032FD00F0C6FB08B100F08B
:109EF000DBFB09B0F0BDFFF7A9FF0028F7D001F0A8
:109F000025FDF4E7734B01221A704B681A78724BE7
:109F10001A70EEE76F4B02261E704B681B78012B00
:109F2000E7D100F031FB3146FFF75DFC02463146D8
:109F3000CEE7684B0322EBE70520FEF771FD654B8A
:109F40001E78022E2AD0032E50D0012ED1D104AB80
:109F5000102218460021FEF7E5F95F4A237A1278AD
:109F60008DF81020002203920C2B4FF00302CDE954
:109F70000120DCD163681846FFF707FC0590181D27
:109F8000FFF703FC069003F10800FFF7FEFB0790C4
:109F900001A800F037FA0028ABD0C4E7237A13F009
:109FA000030011D0C0F104021A44D2B219464FF096
:109FB000000C0E4601316768C9B2914207F806C02D
:109FC000F7D11B1A043323720123049363680693A9
:109FD000237A04A89B08059300F0F8FA002888D09B
:109FE0000221FFF700FC0221024671E7207A830775
:109FF00002D0324631466BE7384E0190314601F0CF
:10A000001FFD014618B12846FFF709FC71E761689A
:10A01000019A306802F0C6FF019801F077FD014611
:10A020000028F0D101A9304601F080FD014600284A
:10A03000E9D104230493019B9B08059304A833688A
:10A04000069300F035FA074640B9254A237A11688D
:10A050000B441360234B32681A604AE709281BD16E
:10A060001F4B217A1A68114419601F4B1B78002B73
:10A070003FF43FAF1D4C2388013B9BB22380002B54
:10A080007FF437AF284600F03FFE08B101F05EFCD8
:10A09000174B1B8823802CE7306801F0FBFC01463E
:10A0A00010B12846FFF7BBFB3946ACE70E4B012247
:10A0B0001A700F4A8B8813800C4A138019E70A4ADA
:10A0C000002313700A4AF8E7054B196800F0E0FD19
:10A0D00001E700BFE9930020F0930020FC930020EB
:10A0E000E0930020F8930020E8930020E6930020FE
:10A0F000E493002018DF7047012973B514460D461C
:10A100001A4608D0032912D014B3204602B0BDE885
:10A11000704001F01BBC0F4B1B78052BF4D10E4B8C
:10A120001B68002BF0D0214604209847ECE7094E2D
:10A130003378022BE8D1094B01925B689847064BB4
:10A1400035701B68002BDFD0019A21462846ECE7CA
:10A1500002B070BD08940020009400202C940020D0
:10A1600000B5084B89B001221A7005238DF80C3018
:10A17000079B009303AB0FCBFFF78CF809B05DF89A
:10A1800004FB00BF0994002000B589B003238DF8BB
:10A190000C300A4B1B88ADF80E30094B5A680492FC
:10A1A0009A68DB680693079B0093059203AB0FCB7D
:10A1B000FFF770F8002009B05DF804FB3894002028
:10A1C0008494002000B589B001238DF80C300B4B2E
:10A1D0001B88ADF80E3043F208031A68084B596823
:10A1E00004919968DB6806930591009203AB0FCB4D
:10A1F000FFF750F8002009B05DF804FB3894002008
:10A200008494002000B589B003AB142200211846C5
:10A21000FEF788F804228DF80C20002200920FC867
:10A22000FFF738F809B05DF804FB000030B589B0DD
:10A2300003AC142200212046FEF774F8094B1B885A
:10A24000ADF80E30084BDB6806930025079B8DF8B0
:10A250000C50009394E80F00FFF71CF8284609B053
:10A2600030BD00BF3894002084940020174B73B594
:10A27000174C1C60174B02221A70FEF789F8164B18
:10A2800048B11968204600F0E3FBB0B102B0BDE868
:10A29000704001F05BBB1B681D0BC3F30B0303B1E4
:10A2A0000135002443F20806A54208D100230848DE
:10A2B00000931A460321FFF71FFF02B070BD3068FC
:10A2C00000EB0430FEF7B4FD0134EDE79C94002070
:10A2D00094940020089400203C94002010B50B4B6F
:10A2E0001B788BB90A4801F067FA08B101F02EFB20
:10A2F000074800224FF4160101F016FA044608B18F
:10A3000001F024FB204610BD0824FBE7099400203F
:10A310000C94002070B50C4686B00321CDE90210E4
:10A320000546960802A8019304940596FFF7E2FEFD
:10A33000E0B1B4F5805F019B11D8012302A8CDE9FB
:10A340000235CDE90446FFF7D5FE78B9032302A80C
:10A35000CDE90235CDE90446FFF7CCFE06E01A460A
:10A36000E11AE81AFFF7D6FF0028E6D006B070BD64
:10A37000F0B585B0174B0193174B184F184E0025B9
:10A380001D70184B394601A8CDE902551D8000F01B
:10A390003DFB044618B13570204605B0F0BD43F2D0
:10A3A000080301461B68104A10487B6001F0AAF9B7
:10A3B00008B101F0CBFA0E4800224FF4160101F06B
:10A3C000B3F908B101F0C2FA0A4B00221A60012366
:10A3D0003370E1E7F9A007008094002094940020F6
:10A3E000089400203894002061A10700DCD4070005
:10A3F0000C94002004940020014B1860704700BFAB
:10A400000094002070B54368204C0FCB84E80F0007
:10A410002278510701D5930731D163689E072ED169
:10A42000A1688D072BD1E068840728D1184E0B4412
:10A430000344B1F5E04F336023D843F208010968C3
:10A44000C1F5E2218B421CD8124D134B2B60D10772
:10A45000124B6B600ED5124BAB60124B1B78012B6D
:10A4600011D1FFF73BFF044610B92B6830689847BD
:10A47000204670BD93074CBF0B4B0C4BECE70624FA
:10A48000F6E70C24F4E70824F2E700BF84940020E8
:10A490003C9400202C9400206DA2070005A2070028
:10A4A000C5A107000894002089A107002DA207007C
:10A4B0002DE9FF470646002855D083689B0754D1F5
:10A4C0002D4B1B78052B52D1DFF8B89042682B4FEB
:10A4D000D9F80030950003EB82033A689342C846EE
:10A4E000BA4608D94FF0FF33C9F800300C24204693
:10A4F00004B0BDE8F087FFF7F1FE04460028F6D16E
:10A50000B1680391FDF744FF1D4E039940B1D9F89E
:10A51000003030682A4600F08BFAA0B10446E6E726
:10A5200043F20803D9F800701868039123462A46BD
:10A530003844FEF763FB039900950B4630682246CA
:10A540000121FFF7D9FDD8F800301D44DAF80030BA
:10A55000C8F800509D420CD1FDF71AFF0028C6D163
:10A56000FEF72EFBC3E70E24C1E71024BFE7082443
:10A57000BDE70924BBE700BF089400203C940020FD
:10A580009C9400200494002070B50B4B1D6885B985
:10A590000A4E3378042B0CD1094C0A4B21781A78D7
:10A5A0000948FEF7ABFB10B90523337070BD257069
:10A5B000FCE70820FAE700BF04940020089400207C
:10A5C000809400208494002040940020F8B5144B1F
:10A5D0001A78032A054603D0042A03D008241AE077
:10A5E00004221A700F4B1B68002BF7D1FFF776FE81
:10A5F000044680B90C4E6B6830789F0000EB8303F3
:10A60000402B0AD8094BA96818443A4602F0CAFC04
:10A6100033783B4433702046F8BD0924FBE700BF84
:10A62000089400200494002080940020409400208E
:10A6300038B50D4C2378052B14D10C4B0C4D1A68F2
:10A640002B689A420ED106232370FFF747FE40B9CC
:10A65000084B29681B685868FEF78AFB08B907236E
:10A66000237038BD0820FCE70894002004940020E3
:10A670003C9400209C94002010B5084B1B78072BBD
:10A680000AD1074801F098F808B101F05FF9054BCD
:10A69000BDE810409B681847082010BD08940020B2
:10A6A0000C9400202C94002000B589B006238DF86E
:10A6B0000C30079B009303AB0FCBFEF7EBFD09B00B
:10A6C0005DF804FBF0B58DB005A8FEF73FFF089CD0
:10A6D000002C3ED00B9E04F58053B3422DD91E4B67
:10A6E000A6F5805503EA550543F208031B689C4212
:10A6F0000BD869002B46A4EB450201F5805106EB0F
:10A700004500FFF707FE0DB0F0BD05F580530127AA
:10A7100001A8CDE90173CDE90337FFF7EBFC002871
:10A72000F1D14FF4805301A8CDE90233019704978A
:10A73000FFF7E0FC0028E6D1DBE70123CDE9013695
:10A74000A4084FF4805301A803930494FFF7D2FCAC
:10A75000D9E72046D7E700BF00F0FFFF00B58DB076
:10A7600005A8FEF7F3FE099860B1089B6BB943F2A8
:10A7700008031B6880080022039001A8CDE901238B
:10A78000FFF7B8FC0DB05DF804FB0B9A1344F1E73A
:10A7900000B58DB005A8FEF7D9FE099878B1089BE1
:10A7A00083B943F208031B680393800803214FF425
:10A7B000F022049001A8CDE90112FFF79BFC0DB037
:10A7C0005DF804FB0B9A1344EEE7000010B58CB063
:10A7D00005A8FEF7BBFE0898B8B10B9C00F58053A6
:10A7E000A34214D943F208031B6898421BD80F4BAD
:10A7F000A4F5805203EA52035900A0EB430201F58D
:10A80000805104EB4300FFF785FD0CB010BD8008BC
:10A8100003224FF48053049001A8CDE9012303944F
:10A82000FFF768FCF1E70E20EFE700BF00F0FFFF45
:10A8300029DF704728DF704723B502460846C968FC
:10A8400043680093044B53F82150436910F80C1BE4
:10A85000A84702B020BD00BFA094002070B5194CDD
:10A860002378182202FB03431A795D69012A03D079
:10A87000032A1AD00F2070BD134AD86816689A6848
:10A880009969A2EB0632B2F5805F284401EB0631EC
:10A8900000EB063034BF92084FF48062FFF7C8FF28
:10A8A0000028E8D10123A370E5E74FF08053186931
:10A8B000054B1B6880B2B5FBF0F01844FFF7BAFFF8
:10A8C000EEE700BFB0940020A895002070B5134DAE
:10A8D0006C780A2C1FD02E783444E4B2092C84BF43
:10A8E0000A3CE4B2182606FB0454A261207103C995
:10A8F000A360049BE360AB7804F1100282E80300DC
:10A9000023B100206B7801336B7070BDFFF7A6FF99
:10A910001128F7D1F5E70420F7E700BFB094002035
:10A92000F8B527498B780C462BB1002602288E708B
:10A9300002D003283AD0F8BD0D78224A182101FB35
:10A940000541136889680133B1EB033F13601BD8DD
:10A9500063781660013B63706B1CDBB2182704261A
:10A96000092B17FB056188BFA5F1090321440020CD
:10A970002370FFF761FF07FB05430022C3E9046270
:10A980001A719A609A61DA606378002BD3D0A37849
:10A99000002BD0D1FFF762FF0028CCD01128CAD0FD
:10A9A0002178182303FB0141043105E00B781822BC
:10A9B00002FB031104310D20BDE8F840FFF73CBF56
:10A9C000B0940020A89500200C4B00221A600C4B7C
:10A9D0000A201A809A7004210138C3E904121A71FE
:10A9E0009A609A61DA6003F11803F5D1054B18609B
:10A9F000054BC3E90000C3E902007047A895002099
:10AA0000B0940020A4950020A0940020064A03469C
:10AA10001068042807D00860411C11601A68034BB5
:10AA200043F8202000207047A4950020A094002027
:10AA300013B5CC180C43A40708D1009313460A465B
:10AA400001460120FFF742FF02B010BD1020FBE7D6
:10AA500007B500220B46009201460320FFF736FFA0
:10AA600003B05DF804FBA8DF7047AADF7047ADDFD5
:10AA70007047AEDF7047B0DF704762DF704700009D
:10AA80002DE9F0470E4694B00546002800F0F98005
:10AA9000002900F0F6804B68002B00F0F2804FF6A2
:10AAA000FF730380784B04AA03F1100C1746186853
:10AAB0005968144603C4083363452246F7D141F26E
:10AAC00030530DF10A013846ADF80830FFF7D5FFD5
:10AAD0000446002840F0D1802A1D02A90120FFF77A
:10AAE000C2FF0446002840F0C8809DF80A30AB71D0
:10AAF00001461C220DA8FDF715FC9DF834300E947C
:10AB000043F004038DF8343001AFAB798DF80E308B
:10AB1000214641F2325303223846CDE91044CDE9B3
:10AB20001244ADF80C30FDF7FDFB9DF8063023F024
:10AB30001F0343F00303214614224FF4885A08A848
:10AB40008DF80630ADF804A00DF10C08FDF7EAFB16
:10AB50004FF01409A8880A9405F1080308AA0DA962
:10AB60000C94CDE90887ADF82C90FFF77EFF0446E2
:10AB7000002840F0828001461C220DA8FDF7D2FB80
:10AB80009DF834300E9423F0180343F018038DF829
:10AB90003430AB798DF80E30214641F23153032227
:10ABA0003846CDE91044CDE91244ADF80C30FDF73C
:10ABB000B9FB9DF80630ADF804A023F01F0343F065
:10ABC000130321464A4608A88DF80630FDF7AAFB74
:10ABD0001723ADF82C30A8880A9405F1100308AAB1
:10ABE0000DA90C94CDE90887FFF73FFF0446002824
:10ABF00043D101461C220DA8FDF794FB9DF834308B
:10AC00000E9443F002038DF83430AB798DF80E309A
:10AC1000214641F2345303223846CDE91044CDE9B0
:10AC20001244ADF80C30FDF77DFB1123ADF8043074
:10AC30009DF8063023F01F0343F0030321464A46E4
:10AC400008A88DF80630FDF76DFB02230A93ADF8D6
:10AC50002C30A8880C9605F1200308AA0DA9CDE98F
:10AC60000887FFF702FF044638B97368AB62B36820
:10AC700003B1EB62054B01221A70204614B0BDE807
:10AC8000F0870E24F9E700BFE0D40700AC95002060
:10AC900070B5054686B070B302884FF6FF739A42CE
:10ACA0002BD0174B1B7843B3164C1022080AE170C7
:10ACB000207121FA02F0090E072301266071A171AB
:10ACC00002A800216370ADF806302270A670FDF76F
:10ACD00029FB2B8AADF808300023ADF80C3028880A
:10ACE0008DF80A600DF1060302A9CDE90434FFF7DF
:10ACF000C0FE06B070BD0E20FBE70820F9E700BFDC
:10AD0000AC950020AD95002030B5044687B060B307
:10AD100002884FF6FF739A4229D0164B1B7833B343
:10AD2000154D11232B700B0A6970AB700B0C090EBB
:10AD3000EB70297105230021102202A8ADF806301E
:10AD4000FDF7F0FA238AADF8083001238DF80A30B8
:10AD50000023ADF80C3020880DF1060302A9CDE9DF
:10AD60000435FFF786FE07B030BD0E20FBE7082054
:10AD7000F9E700BFAC950020AD95002030B5044642
:10AD800087B038B300884FF6FF73984224D0134B36
:10AD90001B780BB3124D102369700321ADF8061018
:10ADA000AA7000211A4602A82B70FDF7BBFA238A6D
:10ADB000ADF8083001238DF80A300023ADF80C30CF
:10ADC00020880DF1060302A9CDE90435FFF751FEF5
:10ADD00007B030BD0E20FBE70820F9E7AC95002056
:10ADE000AD95002070B50D4688B0044650B149B10C
:10ADF000826A3AB10B88502B47D005D8102B41D02E
:10AE0000112B52D008B070BD512BFBD18E79022E80
:10AE1000F8D10A89038A9A42F4D18B7B043B022B36
:10AE2000F0D99DF816308DF8106043F001038DF8CD
:10AE300016300B8AADF818304B8AADF81A3008225C
:10AE400001F1140301A800210793FDF76BFAA18A11
:10AE50002088019601AACDF808D0FFF708FE38B384
:10AE6000E36A03B1984740F2FD132088ADF814302F
:10AE700004A9FFF700FE0028C4D0E36A002BC1D06C
:10AE80009847BFE78B882380BCE7C988038999422C
:10AE9000B8D108238DF81030123535F8023C8DF802
:10AEA0001830059504A99047ACE74FF6FF73EAE721
:10AEB0009DF800302088DB07D5D5002604A9ADF821
:10AEC0001460FFF7D8FD0028D7D1297D4B1E072B32
:10AED00040D8DFE803F004192226282A3D2C6B8A8B
:10AEE0008DF80460012B05D8062201212046FFF7CA
:10AEF00045FFC0E7012315358DF80C300295A36A94
:10AF000001A9204698477DE76A8A01239A428DF875
:10AF10000430F0D806220221E8E702238DF804303D
:10AF2000EDE70323FAE70423F8E70523F6E76B8A46
:10AF3000022B02D803220821D8E7AA7D6B7D43EAC1
:10AF40000223002BADF808300CBF07230623E5E7EA
:10AF50000923E3E70322C9E7A8DF7047AADF7047A8
:10AF60002DE9F04180468EB015461F460E4611B9B8
:10AF7000084600F0EBFC15B9284600F0E7FC1C225F
:10AF80000DEB02000021FDF7CDF99DF81C30ADF866
:10AF90000480002443F002038DF81C302146012375
:10AFA000032268468DF80630CDE90A44CDE90C4409
:10AFB0000894FDF7B7F93B788DF800307B788DF871
:10AFC00001309DF8023023F01F0343F002032146B5
:10AFD000142202A88DF80230FDF7A4F90A48CDF832
:10AFE0000CD001AB029302AA149B0088ADF810505C
:10AFF00007A9ADF81240ADF814500696FFF7AEFF62
:10B000000EB0BDE8F08100BFEC95002030B587B0F0
:10B0100041F60A035C4AADF80C30044603A901204E
:10B020008DF80E00FFF798FF0546002849D12288C9
:10B03000002A49D1228952B1544B0093E16804F1AE
:10B040003C0342F62420FFF78BFF002847D1228AD9
:10B0500052B14F4B0093616904F13C0342F6252045
:10B06000FFF77EFF00283AD1228B52B1494B009363
:10B07000E16904F13C0342F62720FFF771FF002845
:10B080002DD1228C4AB1444B0093616A04F13C03F8
:10B0900042F62620FFF764FF08BB228D4AB13F4BE2
:10B0A0000093E16A04F13C0342F62820FFF758FFC1
:10B0B000A8B9236BABB9616B002938D1A36B002B06
:10B0C00042D1284607B030BD354B0093616804F18A
:10B0D0003C0342F62920FFF743FF0028AAD005468B
:10B0E000EFE71A688DF810201A68120A8DF81120FF
:10B0F0005A888DF81220DA788DF813205A688DF866
:10B1000014209B688DF815301A0A1B0C8DF8173027
:10B11000244B8DF816200093082204F13C0304A967
:10B1200042F62320FFF71CFF0028C4D0D7E71E4BB0
:10B130000A790093096804F13C0342F62A20FFF7DC
:10B140000FFF0028BAD0CAE71A788DF810205A8865
:10B150008DF81120120A8DF812209A888DF813208C
:10B16000120A8DF81420DB888DF815301B0A8DF833
:10B1700016300E4B0093072204F13C0304A942F65B
:10B180005020FFF7EDFEAAE7EC950020CC950020BB
:10B19000E4950020BC950020B4950020EE95002099
:10B1A000C4950020F6950020DC950020D495002061
:10B1B000094A537891780133DBB2994208BF0023E2
:10B1C000117899421FBF03705078182303FB0020A9
:10B1D00014BF04300020704700960020082910B5E5
:10B1E000044602D0002000F0B1FBD4E90030BDE8F5
:10B1F0001040184773B5054600240DF107000E46B0
:10B200008DF8074000F0B0FB0DF10600FFF7D0FF0E
:10B2100090B10670094B9DF8062045605A709DF864
:10B22000070000F0C5FB24B9054B4FF48012C3F8AA
:10B230000021204602B070BD0424F0E700960020F3
:10B2400000E100E0204B21491A682F2300BF00BF16
:10B2500000BF00BF00BF00BF00BF00BF8A422FD0A9
:10B2600000BF00BF00BF00BF00BF00BF00BF00BFE6
:10B2700000BF00BF00BF00BF00BF00BF00BF00BFD6
:10B2800000BF00BF00BF00BF00BF00BF00BF00BFC6
:10B2900000BF00BF00BF00BF00BF00BF00BF00BFB6
:10B2A00000BF00BF00BF00BF00BF00BF00BF00BFA6
:10B2B00000BF00BF00BF00BF00BF00BF00BF00BF96
:10B2C000013BC3D1704700BF688000200024F40018
:10B2D0000C4B0D484FF4003210B5C3F88020012408
:10B2E0004FF48033C0F84833C0F808334460FFF7A8
:10B2F000A9FF064B846000201860FFF7A3FF044BF2
:10B30000187010BD00E100E0001001401C97002003
:10B310000D9700202DE9F3412549264B0025C1F862
:10B320004051C1F84451C1F84851C1F84C51C1F8DD
:10B330000051C1F804511B68002B34D0D1F80445EA
:10B340001D49DFF888800968641A24F07F442F467D
:10B350001968A14212D81A7CDE69641A0D4462B1E0
:10B360005A691F7400929B690193424608216846FE
:10B3700000F056FA08B100F0E9FABEB90F4A104BD6
:10B3800011781B788B4205D10133DBB2022B08BF49
:10B390000023137012780B4B43F822500A4B4FF4E2
:10B3A0008012C3F8002102B0BDE8F0813346CFE738
:10B3B00000100140209700201C97002019970020C2
:10B3C000189700201097002000E100E0DDB1070091
:10B3D0002DE9F74FA84AA94913780978A84C994252
:10B3E0003BD00133DBB2022B08BF00231370A54909
:10B3F0001278A54B0F6853F822003B1823F07F43C7
:10B4000000220B60236815461646944613B942B1D4
:10B41000236006E0196881420DD902B12360091A40
:10B42000196001262368DFF8689200930027BDB9F0
:10B43000DFF868A267E0401A0E44D968D3F81CE030
:10B44000C3F800C031B1BA1922F07F42C3E901212B
:10B45000DD611D4673460122D8E700252E46E1E74F
:10B460002846ED69874A43681268DFF834E2D0F86D
:10B4700008C0991A21F07F41714500F2AD80614406
:10B4800001600122027422680023C0E90133C36114
:10B49000002A40F0AB802060C9E75A1C9AF80210DD
:10B4A000D4F800B0D2B291428AF8002004BF002242
:10B4B0008AF80020182202FB03A31A799868022A4E
:10B4C00077D0032A00F08580012A1CD190F810C0A3
:10B4D000BCF1000F17D1D96841601A6982605A69BE
:10B4E000C2609B698361694B1B78002B18BF614662
:10B4F0004160B7E7904200F09E809046D269002AF2
:10B50000F8D1002303749AF800309AF801209A4287
:10B51000C3D1236827B9009A9A4201D1002E42D0A4
:10B52000002B00F08580D3F80090594C554BD4F88F
:10B5300004651868574F351A3B7825F07F45033569
:10B540009BB94FF48033C4F84433C4F80433524BEE
:10B550004FF400324FF00108C3F880211A60C4F89C
:10B560000080FFF76FFE87F80080A9452CBF484494
:10B57000401920F07F40C4F84005D4F804359B1BE7
:10B5800023F07F43801B033320F07F4083420AD99E
:10B59000D4F80435C4F84035FFF754FE3E4B4FF461
:10B5A0000032C3F80021394B00221A7003B0BDE805
:10B5B000F08F5A46D846A2E78BF81020DBF81CB073
:10B5C0000123BBF1000FF7D1002B9CD0C4F800B0D1
:10B5D00099E700231A46F4E7D31A23F07F43634523
:10B5E00034BFACEB0303002303604AE70168136830
:10B5F00099421BD8591A1160C2614CE7A1EB0C01AA
:10B60000D3F81CC01A46BCF1000F0AD06346D3F829
:10B6100000C08C45F2D3ACEB010CC3F800C09C46D3
:10B6200013460160C0F81CC0D86100E71346EEE77E
:10B63000FFF74EFEB7E7404510D1DBF81C30236022
:10B6400063B9DFF840E001920121C9F80810CEF893
:10B6500000300E4B1970FFF7F5FD019A1368D2699F
:10B66000C8F81C2012B111680B44136023685B45B5
:10B6700018BF012745E700BF189700201997002041
:10B68000209700201C970020109700200C97002086
:10B69000001001400D97002000E100E0009600201E
:10B6A000FEFF7F0008B5FFF713FE104B00200B22B2
:10B6B00018809A700E4B18600E4B18700E4B187055
:10B6C0000E4B4FF48012E021C3F8802183F814134D
:10B6D0001A6002F18042A2F56F22C2F8080583F8D1
:10B6E0001113074BD2F804251A6008BD00960020FC
:10B6F00020970020189700201997002000E100E013
:10B700001C970020074B9B784BB132B128B10368DE
:10B71000187C20B959745A61704707207047082077
:10B72000704700BF009600202DE9F743DFF88480C2
:10B7300098F8023005460E461746ABB3A0B304296D
:10B7400030D9436983B3437C0024012B0DF10700FA
:10B750000CBF8946A1468DF8074000F005F90DF1B0
:10B760000600FFF725FDD8B1012303700F4B45609C
:10B77000D3F80435C0E90497C0E902369DF80630D5
:10B7800088F801309DF8070000F012F924B9084B41
:10B790004FF48012C3F80021204603B0BDE8F083C7
:10B7A0000424EFE70724F7E70824F5E70010014039
:10B7B00000E100E000960020064A92783AB130B1EC
:10B7C000426922B1002202740221FFF713BD082052
:10B7D000704700BF009600204B1C30B5DB000446CC
:10B7E00012F003009BB20DD1074D2A601A44074B9B
:10B7F0001A60074B1870074B1870074B1C80074BDB
:10B80000198030BD0720FCE72C97002028970020E6
:10B810002497002034970020309700203297002092
:10B820002DE9F3472B4F3B888B4206460D46904649
:10B830004BD300240DF107008DF8074000F094F879
:10B84000254B26481A78264B008893F800C084457B
:10B850005FFA8CF138BF4C1CD2B238BFE4B2A242BE
:10B860002DD01C781A78D1B2904286BF0131C9B26E
:10B87000002119709DF8070000F09AF84FF6FF7349
:10B880009C4224D0DFF86090D9F800204FEAC40A27
:10B8900042F8348002EBC403A6B19DB1114B388845
:10B8A0001B682A4604FB0030314601F07BFBD9F8C7
:10B8B0000030534400209D8002B0BDE8F0874FF671
:10B8C000FF74D7E700209880F6E70920F4E704200A
:10B8D000F2E700BF30970020349700203297002015
:10B8E00024970020289700202C970020F8B5114CB1
:10B8F000114D264622782B789A4200D1F8BD0F4888
:10B900000F4A2378126807880E4802EBC3010068CB
:10B9100052F83320898803FB070090470A492278B0
:10B920000988D3B2914286BF0133DBB20023337062
:10B93000E0E700BF349700202497002030970020D4
:10B940002C97002028970020329700201FB5002157
:10B95000CDE9021001AA44F20100ADF80410FCF791
:10B960000DFD05B05DF804FB70B5EFF3108672B6FF
:10B970000C4A946801239CB993600B4B0B4DD3F890
:10B98000801029401160C3F88050D3F884105160B2
:10B990004FF0FF32C3F88420047006B962B670BD60
:10B9A0000370FAE7B4BD002000E100E0FC06FFBD33
:10B9B00010B5084B9A685AB150B9EFF3108172B6BE
:10B9C000054A1C6814605C685460986001B962B6EE
:10B9D00010BD00BFB4BD002000E100E010B504467A
:10B9E00022B1108821448C4203D110BD4FF6FF7064
:10B9F000F8E743BA14F8010B9BB24340C3F30312B8
:10BA0000534083EA03335A0102F4FF529BB283EAA4
:10BA10000200E8E7064B074A00201870064B1A6040
:10BA20001022C3E90120C3E90300C3E90500704700
:10BA30003597002038970020F8BC00200020704780
:10BA400030B5F9B1124B5C6800220A60E4B1B0F580
:10BA5000167F1BD8D8681D680130013CD860186972
:10BA60005C604FF4177404FB00540C60012101FA70
:10BA700000F49969013000F00F00214318619961C9
:10BA8000104630BD0E20FCE70420FAE70C20F8E752
:10BA9000F8BC0020F0B51C4B996899B35D691E682D
:10BAA0006C1A04F00F0422464FF4177707FB026C60
:10BAB000604511D1012000FA02F59869684098614B
:10BAC00000205E68D3F818C04FF0010E72440025C4
:10BAD0000E4402F00F020AE0013202F00F0295421A
:10BAE000E4D11020EDE749B10139144601250EFAE1
:10BAF00004F414EA0C0FA6EB0107F4D00DB1C3E96E
:10BB00000171F0BD0420FCE7F8BC0020064A13696F
:10BB10001268013B4FF4177103F00F0301FB03237D
:10BB2000C3F8580200207047F8BC002030B5C0B1FF
:10BB3000B9B10E4BDA68B2B1013ADA609A681D68A1
:10BB400001329A605A694FF4177404FB025404607E
:10BB50000132D4F85802086002F00F025A61002046
:10BB600030BD0E20FCE70420FAE700BFF8BC00203F
:10BB70003FB40C49086890B10B4B1C687CB10B4A70
:10BB80001568CDE9025000238DF804300B60136076
:10BB900004AB13E90700234604B030BC184704B0D7
:10BBA00030BC70471CBD002020BD00202CBD0020F3
:10BBB000DC2810B509D0DD2810D0C02816D1FFF739
:10BBC000D7FF0E4B0E4A1A6010BD0E4A0E4B196875
:10BBD0001368581C1060C022CA54F2E7094A0A4B85
:10BBE00019681368581C1060DB22F5E7064B054AFC
:10BBF000196813685C1CC8541460E2E77480002064
:10BC00003DBC07001CBD00202CBD0020C02802BF89
:10BC1000014B024A1A607047748000203DBC070047
:10BC200008B5DB2000F0D4FB10B9024B024A1A60C1
:10BC300008BD00BF78800020D9BD0700C02810B41F
:10BC400009D0DB280BD0094B094A196813685C1C22
:10BC5000C854146006E05DF8044BFFF789BF054B3C
:10BC6000054A1A605DF8044B704700BF2CBD0020E8
:10BC70001CBD002074800020B1BB070010B5064A2F
:10BC8000064C12682368D05C00F0A2FB10B9236850
:10BC90000133236010BD00BF30BD002024BD002053
:10BCA00008B5C02000F094FB28B9034B1B6813B9FA
:10BCB000024B034A1A6008BD24BD00207880002092
:10BCC0007DBC07007FB51C4C1C4E1D4D226833689F
:10BCD0009A4219D31B4B2B60FFF7E2FF002829D1B2
:10BCE000194B01221A70194B1B681BB38DF80420E5
:10BCF000174A126802922268039204AA12E9070006
:10BD000004B0BDE870401847114B22681B689A5C6C
:10BD1000C02A03D022689B5CDB2B05D10D4B2A681F
:10BD20009A4204BF0C4B2B602B689847042801D023
:10BD30001128CBD104B070BD24BD002028BD002047
:10BD400078800020A1BC070014BD002020BD002089
:10BD500030BD00207DBC070021BC07001FB5037863
:10BD6000032B044605D1164B1B78022B25D1FFF778
:10BD7000A9FF2378042B20D1124B1A6862B1124B11
:10BD80001968124B1B68994206D2114B20791B6827
:10BD900004B0BDE8104018470E4B1B686BB102920F
:10BDA000094A0221126803928DF8041004AA12E9CC
:10BDB000070004B0BDE81040184704B010BD00BF34
:10BDC00014BD00202CBD00201CBD002018BD00208B
:10BDD0007480002020BD002010B50C4A0C4C126865
:10BDE0002368D35CC02B03D0DB2B0DD0042010BD07
:10BDF000DC2000F0EDFA0028F9D12368054A013370
:10BE00002360054B1A60F2E7DD20F2E730BD002029
:10BE100024BD00207DBC070078800020014B186005
:10BE20000020704720BD0020F0B50C4E377887B059
:10BE300097B90B4D0FCD6C460FC495E80300094A26
:10BE400084E8030007233946684600F073FA08B90E
:10BE50000123337007B0F0BD0020FBE714BD0020C4
:10BE6000F0D407005DBD0700024B00221A7000F0FD
:10BE7000C3BA00BF14BD002010B5C0B10D4B1A7875
:10BE8000012A04D0022A14BF0820042010BD0A4A47
:10BE900000241460094A1160094A106002221A70D5
:10BEA000084B094A1A60FFF70DFF2046EEE7102005
:10BEB000ECE700BF14BD002024BD002028BD0020F9
:10BEC00030BD002078800020A1BC0700054B064A49
:10BED0001860064B1960064B00201860054B1A606D
:10BEE000704700BF2CBD00200DBC070018BD00200E
:10BEF0001CBD002074800020064B07481B68DB0037
:10BF0000DBB20022037004215B4242708270C37076
:10BF1000FFF7B2BF5CBD002034BD002070B52C4CD3
:10BF20002C4E024625462378012B14D0022B21D01B
:10BF3000002B4CD1002A4AD12748FFF73DFC08B11D
:10BF4000FFF704FD254B1B68002B40D0244ABDE8B9
:10BF5000704010781847012A39D13168214B0631D9
:10BF60001868FFF789FF08B1FFF7F0FC02232B7078
:10BF70000022D8E7022A17D0032A0CD03ABB1A4B6A
:10BF800015481A6041F67F21FFF7CEFBF8B1BDE8F6
:10BF90007040FFF7DBBC154A1368013303F0070359
:10BFA000136000232370E3E70F4A1368052B0AD0C0
:10BFB00001331360074B19680A4BBDE870401868DD
:10BFC0000631FFF759BF064B01221A70E9E770BD31
:10BFD00080BD002074BD002038BD002070BD002051
:10BFE00078BD002088BD00207CBD002060BD002001
:10BFF000F0B585B004AB03E907009DF80400032801
:10C0000078D8DFE800F00802A7AA012005B0BDE853
:10C01000F040FFF783BF039E564C032E40F286800C
:10C02000029D6B7813F00F0269D00E2A7ED1042E88
:10C0300059D02A78500656D5110654D51A44AB78F3
:10C040001A44EB781A4412F0FF024CD1B71E39465D
:10C050002846FFF7C3FCEB195A78EB5D43EA02234D
:10C06000984240D144492A780B6802F00702D8B2BE
:10C0700082422BD1013303F007030B60FFF73CFF33
:10C080003E4B012230461A70FFF740FD08B1FFF722
:10C090005DFC38494FF41670FFF7D2FC002862D0DF
:10C0A000042802D00020FFF751FC35480521FFF796
:10C0B0000DFF08B1FFF74AFC324B1B68002B56D02E
:10C0C0004FF0000005B0BDE8F040184720684FF47D
:10C0D0001671FFF7FBFE08B1FFF738FC05B0BDE8AD
:10C0E000F040FFF709BF20684FF41671FFF7EEFE2E
:10C0F00000283CD005B0BDE8F040FFF727BC297808
:10C10000AA780B441344EA78134413F0FF030DD1CB
:10C110001D4A12680132C1F3C20102F007029142C6
:10C1200004D11A4A03201370FFF7F8FE25681DB1E9
:10C130004FF416712846D9E70E494FF41670FFF7F1
:10C140007FFC60B1042802D02846FFF7FFFB0C48B3
:10C150000521CBE70A480521C8E70320CAE7206884
:10C160004FF41671C2E720684FF416719FE705B0CF
:10C17000F0BD00BF84BD00205CBD002058BD002084
:10C1800064BD00206CBD002060BD002078BD002093
:10C190000220FFF7C3BE0000074B10B5044618602D
:10C1A0000648FFF73BFE08B1FFF7D0FB002C0CBFA1
:10C1B0000E20002010BD00BF6CBD0020F1BF0700A5
:10C1C000184A1948002310B51360184A1360184A1A
:10C1D0001360184A1370184A1370184B184A01213B
:10C1E0001960184B1960184B1970FFF78BFA08B1DA
:10C1F000032010BDFFF70EFC0028FAD1FFF714FE54
:10C200000028F6D1114C4FF416702146FFF718FCA8
:10C210000028EDD120684FF41671BDE81040FFF7FB
:10C2200055BE00BF88BD002008D5070074BD0020A2
:10C230007CBD002058BD002080BD00205CBD0020DA
:10C2400091C1070060BD002078BD002084BD0020A2
:10C250000C4A08B5002313600B4A1360FFF7EEFB8E
:10C2600008B1FFF773FBFFF7FFFD08B1FFF76EFBA7
:10C270000648FFF7A1FA042802D10020FFF766FB69
:10C28000002008BD70BD00206CBD002038BD00201E
:10C2900037B50D46044698B191B10A4B1978002282
:10C2A000019259B101A91A70FFF740FC019B063BAE
:10C2B0002B8023680433236003B030BD0420FBE7E8
:10C2C0000E20F9E758BD00200438FFF7E3BB00005B
:10C2D00013B50478012C13D104238DF80030436882
:10C2E00010491B7810488DF80430224600F0C4FA3B
:10C2F0000E4B1C700E4B68461B68984702B010BD71
:10C30000022C09D1C368074907488DF80040012273
:10C31000019300F0B1FAEDE7002CEFD103238DF883
:10C320000030E7E790BD00207C80002091BD002018
:10C330008CBD0020F0B5204E044617469C460FCE1B
:10C3400089B06D460FC596E80F0085E80F00636958
:10C350000693237C8DF81CC0003B18BF01238DF889
:10C360001430637C1548002B14BF0E2300238DF876
:10C370001530E3680293A36803932368019363680D
:10C3800000930F4B1F600F4B00221A7069460E4A34
:10C3900000F0A4F868B9236801330AD09DF81D3075
:10C3A00013B9064800F02CFB08490448012200F0AC
:10C3B00063FA09B0F0BD00BF0CD507007C800020F7
:10C3C0008CBD002091BD0020D1C2070090BD00208F
:10C3D000074908B501220870064800F0C9F911287C
:10C3E00003D0002818BF032008BD0420FCE700BFCD
:10C3F00092BD00207C80002008B5024800F038F98A
:10C40000002008BD7C8000200023435082B04358A8
:10C410000193019B02B070470023435082B0435800
:10C420000193019B02B070470A4610B54FF48E711C
:10C43000FFF7EAFF938A91689BB2C95C938A013344
:10C440009BB29382C0F81C1510BD1FB500238268F3
:10C450008DF800308DF8081083750192D0E9001333
:10C460006846984705B05DF804FB08B502464FF4EE
:10C4700092710068FFF7C8FF4FF484711068FFF7EE
:10C48000C3FF136801221A6008BD10B5CB7D0A46B0
:10C490004FF4847123B9FFF7B7FFD0F8183510BDFA
:10C4A000FFF7B2FF537ED168D0F81805C854537E09
:10C4B0000133DBB25376F2E71FB501238DF800306C
:10C4C000054B8DF8080001916846D3E900129047AA
:10C4D00005B05DF804FB00BF94BD0020F8B5614DC8
:10C4E00003795E0105EB43130446D87E002840F033
:10C4F000B680487F18770868431C0BD0012383401F
:10C500004FF0A0400327C0F808350B6803F5E0732F
:10C5100040F823704B685F1C1FBF03F5E0734FF0BA
:10C52000A040002740F82370487D0B7D2768D1F894
:10C5300018C00343207905EB4010007FC7F824C5DD
:10C54000002867D02068C0F86C35D1E900702368F6
:10C55000C3F80C75C3F814050B7D012B1FD18B6834
:10C56000581C06D003F5E0734FF0A040002740F8B8
:10C570002370C868431C0BD0012383404FF0A040B8
:10C580000327C0F80835CB6803F5E07340F8237043
:10C59000D1E902072368C3F80875C3F81005AB1981
:10C5A0005A600B69AB5122B323790A7F206805EBEF
:10C5B00043131B7F002B44D04FF48871FFF72CFFEF
:10C5C00020684FF49071FFF727FF20684FF49271B5
:10C5D000FFF722FF4FF4A2712068FFF71DFF2368C9
:10C5E0002149C3F804132068114640F3073000F0D6
:10C5F0000BFB2379226805EB43131B7F6BB30823E6
:10C600003544C2F8003500204FF480732876E88264
:10C610006B83F8BD2768C7F86C35D1E900C723687C
:10C62000C3F81475C3F80CC50B7D012BB7D18B680B
:10C630005F1C1EBF03F5E0734FF0A04747F82300CF
:10C6400097E74FF48E71FFF7DFFE4FF4A271206879
:10C65000FFF7DAFE23680549C3E70423D0E7082083
:10C66000D7E700BF94BD0020100302008000020045
:10C67000F0B53B4A037901685F0102EB43131B7F6E
:10C6800003B10023C1F80035D3195B68B3B1037956
:10C69000016802EB43131B7F002B53D0314BC1F8D1
:10C6A0000833016841F3073301245B09C1F3043106
:10C6B00004FA01F120332C4C44F82310017903686B
:10C6C00002EB4111D3F80C65097FD3F8145500290A
:10C6D0003AD04FF0FF3CD3F80815D3F81045C3F813
:10C6E0000CC5C3F814C50368C3F808C5C3F810C562
:10C6F000731C1FBF4FF0A04306F5E076022043F8FD
:10C7000026006E1C1FBF4FF0A04305F5E075022008
:10C7100043F82500601C1FBF04F5E0744FF0A043F0
:10C72000022043F824004B1C1CBF4FF0A04301F52E
:10C73000E0713A441CBF022043F821000023D37665
:10C740005360F0BD094BAAE74FF0FF3CD3F8081542
:10C75000D3F81045C3F814C5C3F80CC5C3E700BF30
:10C7600094BD00201003020000E100E084020200FA
:10C770002DE9F0413F4E05790446680106EB451569
:10C780002D7F25B101F06043B3F1005F6ED1331806
:10C79000987D00286CD19A7599609882277906EB6C
:10C7A00047154FEA47182B7F53B320684FF4907119
:10C7B000FFF732FE4FF4AC712068FFF72DFE2368BF
:10C7C000AA7DA968C3F84415C3F848252368012247
:10C7D0009A606B6813B10020BDE8F0812368D3F83C
:10C7E0002021D3F858011AB90028F8D00F2002E010
:10C7F000002818BF0F2006EB080300229A75EBE70C
:10C8000020684FF48E71FFF7FFFD236801229A60C4
:10C8100006EB471720683946FFF706FE6B68002BCA
:10C82000D9D1A97DAB8A9BB28B420DD3AB8A9BB287
:10C83000B3F5807FDAD02368D3F81C21002AFBD01F
:10C840000122DA600020D6E72068D0F81C3123B935
:10C85000AB8A9BB2B3F5807FF7D1AB8A9BB2B3F5BD
:10C86000807FDFD03946FFF7DFFDDAE71020B3E73E
:10C870001120B1E794BD00202DE9F8435F4E0F462B
:10C8800001794B0106EB411105460C7F2CB107F0F5
:10C890006041B1F1005F40F0AD80F118496829B105
:10C8A0002868C4B14FF40474C0F808433344DC7DF5
:10C8B000BCB1187E002850D049B12B792A6806EB0C
:10C8C0004316337F53B14FF40473C2F80433112479
:10C8D0002046BDE8F8834FF40174E5E74FF4017397
:10C8E000F3E7DA75DF605C761C7695F8049006EB6A
:10C8F00049134FEA4918197F00293FD028684FF49F
:10C900008871FFF789FD28684FF4A271FFF784FD55
:10C910002B68C3F83475C3F838252B680CBB01228B
:10C920001A602A792B68500106EB42125268FAB954
:10C93000D3F81011D3F84421D3F82441114302D184
:10C94000002CF5D00A46002306449C42F37518BF1C
:10C950000324002ABCD00F24BAE71F611A760124F1
:10C96000C3E7D3F8002242F02002C3F80022D8E740
:10C970004FF40472C3F804230024A9E79B7E1BB97B
:10C9800014B92846FFF771FD06EB080728687B6895
:10C990005BBB4FF4A27106EB4919FFF735FD286820
:10C9A000D0F82431D0F80821D0F8444172B90CB93C
:10C9B000002BF4D046440022F275EBB9002CCAD10A
:10C9C000B17E2B68012271B11A6081E7002BF1D191
:10C9D000002CEFD14946FFF758FD7B7EFA7D9A4245
:10C9E000DDD82346E6E75A6072E74FF40173C0F8DA
:10C9F0000433C1E710246BE7032469E794BD0020EA
:10CA000038B50379074C04EB431305461A7F42B946
:10CA10009B7E33B9FFF729FD2B7904EB43140123E7
:10CA2000A37638BD94BD00207FB5754C754D237F2E
:10CA3000002B62D0D5F82461002E3DD04FF49271C6
:10CA40002846FFF7E9FC02238DF80030D5F8803442
:10CA5000C5F880340393D5F83C358DF80830E36889
:10CA600001930023E37523766846D4E900139847C1
:10CA70006448D0F844316BB14FF4A271FFF7CCFC9D
:10CA8000E37D3BB10023E375D0F83C05E168C0B21B
:10CA9000FFF712FD5B48D0F820315BB14FF4907185
:10CAA000FFF7BAFCA37D2BB1D0F84C155448C9B29E
:10CAB000FFF7CBFC04B070BDD5F81031002BD7D0F8
:10CAC00028464FF48871FFF7A7FCD5F83C35E07D88
:10CAD000DBB29842CCD1237EE16863B1D5F8002265
:10CAE00022F02002C5F80022E3752369E360267670
:10CAF000FFF7E2FCBCE7E375FAE7D5F804339A05E3
:10CB000048D5D5F82431002B44D04FF492712846F3
:10CB1000FFF77AFC4FF40173C5F80833A37E0BB915
:10CB200001236B60374A02238DF80030D2F880343D
:10CB3000C2F880340393E37D8DF80830E3680193F5
:10CB40000023E37523766846D4E9001398472D48FF
:10CB5000D0F81C313BB1A38AA27D9BB29A4244D942
:10CB60002749FFF761FC2748D0F84431002BA1D0BA
:10CB70004FF4A271FFF748FCA37E0BB101230360C1
:10CB8000E37D002B96D00023607EE168E375FFF71C
:10CB900093FC8FE7D5F804335B07D8D5D5F8083177
:10CBA000002BD4D016491748FFF76FFC637EE27D57
:10CBB0009A42CCD1237E53B1E3752369E168E360E7
:10CBC0000023607E23766376FFF776FCBFE7A37EC3
:10CBD0000BB901236B600B4B4FF40172C3F80823B0
:10CBE0000023607EE168E375EEE74FF48E71FFF796
:10CBF0000BFCA17D0029B6D00148FFF726FCB2E767
:10CC000094BD0020002000400028C3B2A8BF00F15E
:10CC100060424FEA501010B5BABF0D4A03F00F043E
:10CC200002F561424FEA41114FEA8000C9B200F1BA
:10CC30006040B4BF115582F8001300F5614003F065
:10CC40001F0201239340C0F88031036010BD00BF74
:10CC500014ED00E00649074A074B9B1A03DD043B2D
:10CC6000C858D050FBDCFCF747F9FBF7E9FA0000A5
:10CC700038D50700008000208C800020FEE7FEE70A
:10CC8000FEE7FEE7FEE7FEE7FEE7FEE7FEE7FEE77C
:10CC900053B94AB9002908BF00281CBF4FF0FF3123
:10CCA0004FF0FF3000F06EB9ADF1080C6DE904CE25
:10CCB00000F006F8DDF804E0DDE9022304B0704777
:10CCC0002DE9F047089D04468C46002B40F08380F8
:10CCD0008A42174647D9B2FA82F242B1C2F1200025
:10CCE00024FA00F09140974040EA010C94404FEA4A
:10CCF0001748230CBCFBF8F61FFA87FE08FB16C189
:10CD000043EA014306FB0EF1994209D9FB1806F1EB
:10CD1000FF3080F01981994240F21681023E3B4477
:10CD20005B1AA4B2B3FBF8F008FB103344EA0344E7
:10CD300000FB0EFEA64509D93C1900F1FF3380F037
:10CD40000581A64540F2028102383C4440EA064093
:10CD5000A4EB0E0400261DB1D4400023C5E9004316
:10CD60003146BDE8F08702B9FFDEB2FA82F2002A4E
:10CD700050D1CB1B4FEA174E1FFA87F80126B3FBA1
:10CD8000FEFC210C0EFB1C3341EA034108FB0CF3B3
:10CD90008B4207D979180CF1FF3002D28B4200F296
:10CDA000E9808446C91AA3B2B1FBFEF00EFB101154
:10CDB00043EA014408FB00F8A04507D93C1900F1FB
:10CDC000FF3302D2A04500F2D9801846A4EB080434
:10CDD00040EA0C40BFE78B4209D9002D00F0B1803A
:10CDE0000026C5E9000130463146BDE8F087B3FAB8
:10CDF00083F6002E4AD18B4202D3824200F2B880E1
:10CE0000841A61EB030101208C46002DA8D0C5E9EE
:10CE1000004CA5E7C2F1200320FA03F6974001FA7F
:10CE200002F04FEA174ED9403043030CB1FBFEF637
:10CE30001FFA87F80EFB161143EA014306FB08F1BF
:10CE4000994204FA02F409D9FB1806F1FF3C80F07C
:10CE50008D80994240F28A80023E3B445B1A81B247
:10CE6000B3FBFEF00EFB103341EA034100FB08F375
:10CE70008B4207D9791800F1FF3C73D28B4271D9EC
:10CE800002383944CB1A40EA064678E7C6F1200C4E
:10CE900003FA06F422FA0CF31C4320FA0CF701FA09
:10CEA00006F34FEA144E21FA0CF11F433B0CB1FB81
:10CEB000FEF91FFA84F80EFB191143EA014109FB40
:10CEC00008FA8A4502FA06F200FA06F308D9611850
:10CED00009F1FF3048D28A4546D9A9F10209214417
:10CEE000A1EB0A01BFB2B1FBFEF00EFB101147EA45
:10CEF000014700FB08F8B84507D9E71900F1FF31F1
:10CF00002ED2B8452CD90238274440EA0940A7EB75
:10CF10000807A0FB02894F45C64649461AD317D0D9
:10CF20005DB1B3EB0E0267EB010707FA0CFCF240B0
:10CF30004CEA0202F740C5E9002700263146BDE869
:10CF4000F0872E4628460BE70646E9E61846FDE63A
:10CF50004345E5D2B8EB020E69EB04010138DFE787
:10CF60000846D2E760468DE78146B9E7664675E731
:10CF700030464AE7ACF1020C394413E702383C442E
:10CF800024E700BF704700BF30B501390024A2423A
:10CF900001D1002005E0035D01340D5DAB42F6D008
:10CFA000581B30BD0A44914200F1FF3300D1704755
:10CFB00010B511F8014B03F8014F9142F9D110BDA2
:10CFC000034613F8012B002AFBD1181A01387047C9
:10CFD000F8B500BFF8BC08BC9E467047F8B500BF66
:10CFE000F8BC08BC9E46704700800020001002007C
:10CFF0000338FDD870470500FF00FF00FF00FF0069
:10D00000FF00FF00FF00FF00FF00FF00FF00FF0028
:10D01000FF00FF00FF00FF00140808032B03AC0D06
:10D0200006032B03AB0E06032B03AB040802060317
:10D030002B03AA0411032B03AA03100B06070B03EF
:10D040000304010BA403100B040B09030106010BDD
:10D05000A403100B040C080A010BA40411030A0218
:10D06000070407060703AB050F03140307040903AE
:10D07000AC090A03150306040903AD0A08031503E6
:10D0800006030A03B00807030D0B06030A03B405E1
:10D0900006030B0D06030A03B60405030A0E060376
:10D0A0000A03B70305030905070306030A03B703C9
:10D0B00005030903090306030A03B703050309036C
:10D0C000090306030A03B60405030903080406035B
:10D0D0000A03AA02090406040804050606030A0452
:10D0E000A90F0708040E06030B08A40E080805097B
:10D0F000010306030B08A6090D0606060303060333
:10D100000D06FF00FF00FF00FF00FF00FF00FF0013
:10D11000FF00FF00FF00FF00FF00FF00FF00FF0017
:10D120002C02ED04A6014406A4034208A205400A0D
:10D13000A0073E0C9E073E0E930108073E10920288
:10D1400006073E12910304073E14900402073E16A0
:10D150008F0C3E188E0B3F188E0A4214900937022E
:10D160000C100C02840936050C0C0C05830A3507DB
:10D170000C080C07830B330A0C040C0A820C320CCB
:10D18000180C820D300F140FBE111011BE0F140FAA
:10D19000BD0E180EBC0C0C040C0CBB0B0C080C0BBD
:10D1A000BA090B0E0B09BA070B120B07B9060A18BE
:10D1B0000A06B8030B1C0A04C4200A02C224C92AA6
:10D1C000C42EBF34BA38B73AAB010B380A02A004F8
:10D1D0000A340A04A0060B2E0B06A0090A2A0A0923
:10D1E000A00B0B240B0BA00D0B200B0DA00F0B1C89
:10D1F0000B0FA0120A180A12A0140B120B14A0167F
:10D200000B0E0B16A0180C080C18A01B0B040B1B04
:10D21000A01D161DA0201020A0201020A01F121F4E
:10D22000A01C171DA01A0C040B1BA0180C080C182E
:10D23000A0160B0F0A16A0130C120C13A0110C163B
:10D240000B12A00F0C1A0C0FA00D0B200B0DA00A37
:10D250000C240C0AA0080B2A0B08A0060B2E0B06A8
:10D26000A0040B320B04A0010C360C01AA3CB24006
:10D27000A0020D420C0292030D3E0D0393050C3AE1
:10D280000C0594070C360C0795090B310C09960B0D
:10D290000C2C0C0B960E0B280B0D980F0C220C0F60
:10D2A00098120B1E0B1299130B190C139A150B15D0
:10D2B0000C159B170B100B179C190B0C0B199C1BB7
:10D2C0000C060C1A9E1D0B020B1D9E1F141F9F2186
:10D2D0000F20A0201020A11E121EA21B0B020B1B50
:10D2E000A3180A070B18A4150C0A0B16A4140A108D
:10D2F0000A14A5100B140B10A60E0A1A0A0EA70A80
:10D300000B1E0B0AA8080B220B08A9050B260B0500
:10D31000AA030A2C0A03B530BE34BA38B73AB83675
:10D32000BC32C02EC42AC924CE20D21CD618DB128F
:10D33000E00EE40AE806EA06EA06EA06EA06EA0673
:10D34000EA06EA06EA06EA06EA06EA06EA06EA065D
:10D35000EA065206E70CE210DE14DB16D918D71ADB
:10D36000D51CD40B030ED30C040ED20C060CD10D1D
:10D37000070CD00D080BD00D090AD00D04010608CA
:10D38000D00D04020607D00D04030606D0060304E0
:10D3900004040506D006040304030606D0060601AD
:10D3A00004020607D0070A010608D0080F09D00AB0
:10D3B0000B0BD00B090CD00C070DD00C070DD00BAC
:10D3C000090CD00A0B0BD0080F09D0070A01060878
:10D3D000D006060104020607D0060403040306066D
:10D3E000D006030404040506D00D04030606D00D80
:10D3F00004020607D00D04010608D00D090AD00D5D
:10D40000080BD00D070CD10C060CD20C040ED30B5C
:10D41000030ED41CD51AD718D916DB14DE10E20C73
:10D42000E706FF00FF00FF00FF00FF00FF00FF0016
:10D43000FF00FF0085000000EF000000000000007A
:10D440000338FDD8704700003A000000F6CF07000F
:10D4500001000000360000003AD40700010000007F
:10D460002100000000000000000000001300000088
:10D4700000000000000000000000000000000000AC
:10D48000000000000000010101000000B89200202F
:10D490000338FDD8704750696E65444655005069A1
:10D4A0006E6536340050696E6554696D6500302EC6
:10D4B000332E302D33372D673437376432653020C3
:10D4C0007331333220362E312E310000000000003F
:10D4D0000000000000000000000000000C9400208C
:10D4E00023D1BCEA5F782315DEEF121200000000A2
:10D4F000110000000B000000000000000000000010
:10D500000000000000E0D70138BD0020FFFFFFFF52
:10D51000FFFFFFFFFFFFFFFFFFFFFFFF0000000017
:10D520000000000000E0D70107010000000000003B
:08D5300010ADFF7F01000000B7
:10D5380000000000000000000000000000000000E3
:10D5480000000000000000000000000000000000D3
:10D5580000000000000000000000000000000000C3
:10D5680000000000000000000000000000000000B3
:10D5780000000000000000000000000000000000A3
:10D588000000000000000000000000000000000093
:10D598007C7F0020FFFFFFFF0090D003FF00FFFF0C
:10D5A800320000000DBC07007DBC070000200040D1
:0CD5B8000000000025820700018207002F
:020000020000FC
:020000041000EA
:041014000080070051
:0410180000E00700ED
:040000037000CC5568
:00000001FF
