:020000022000DC
:10600000000001207D2903003B1D030065EB020019
:106010003B1D03003B1D03003B1D0300000000006F
:106020000000000000000000000000003B1D030015
:106030003B1D0300000000003B1D03003B1D03004F
:106040003B1D03003B1D0300857A0200E97C020032
:10605000DD7C02003B1D0300B9B5020051C2020005
:106060004D7002003D7002002D700200FD710200B3
:106070003B1D03003B1D03003B1D03003B1D0300B4
:106080003B1D0300F17102003B1D03003B1D03009B
:106090003B1D03003B1D030023E802003B1D0300E2
:1060A0003B1D03003B1D03001D7002000B7002002E
:1060B000B56E02003B1D0300000000000000000060
:1060C0003B1D0300A56E0200956E0200D17C02000C
:1060D000E57102003B1D030000F0030370B553EAB5
:1060E000010406D002440346934213D003F8011B77
:1060F000FAE722F003039608034405469D420AD1BD
:10610000910742BF002120F826100233D20701D5A3
:1061100000221A7070BD45F8044BEFE71FB501234C
:106120008DF80030044BCDE90110D3E90012684628
:10613000904705B05DF804FB783A0020F0B58A7806
:10614000354DC2F34002002A0BBF08230023092467
:10615000082405F12C06A34201D13048F0BD56F8C1
:106160002370013743D12C1805EB83062C4F84F89C
:106170005030F7629C0012B9EA1882F868008A78F9
:10618000560716D4D20734D5820002F1A042D2F8C5
:10619000006726F00206C2F80067224FC60800F02A
:1061A000070C012202FA0CF217F806C042EA0C02B0
:1061B000BA550A7889788F0724D504F1804303F50E
:1061C000C0430002D3F8101521F4473121F4407187
:1061D000C3F810151204D3F8101500F4F85002F4A7
:1061E000403210430843C3F810050F48B6E70133A7
:1061F000B1E74E7800F5E0724FF0A047B60047F8DF
:106200002260CAE7083B2B4493F8700040EA8212F0
:1062100083F87020E9E700BF783A00200200AD0B58
:1062200011B10200E93A00200000AD0B830705D14F
:106230006422B0FBF2F302FB13034BB94FF4C872B4
:10624000B0FBF2F302FB1300B0FA80F04009704794
:1062500001207047084B4A1E10B533F8114033F83F
:1062600012300229A4EB030403D1FFF7DFFF00B1D2
:106270000134204610BD00BFDCCF04000048704749
:10628000F8CF040000487047F8CF040003291DBF71
:1062900016224FF0FF301A600020704710EE102ACF
:1062A00022F00043B3F1994F82B04FEAD2710ED37E
:1062B000B4EE400AF1EE10FA07D69FED400ADFED8A
:1062C000407A002908BFB0EE670A02B070473D4827
:1062D00083420BD8B3F1665F5AD212F0FF4FF4D16C
:1062E00060EE007ACDED017A019BEEE7364A9342EB
:1062F000F0EEC07A37D8A2F5D0029342B7EE007A1A
:1063000029D877EEA76A002336EEC77AF0EE006A46
:1063100077EEA67A87EE270A5A1C60EE006A9FED98
:106320002B6ADFED2B7ADFED2B5A26EEA67A47EEAD
:10633000067A9FED296A07EE876ADFED287A57EE25
:10634000257A67EE877A46EE267A67EE807A22D142
:1063500030EE670AB9E777EEC76A77EE877A0123EE
:1063600086EEA70AD8E71E4A93420BD8F7EE086AD2
:10637000B7EE007A07EEA67A022337EEE66A86EEDB
:10638000070AC9E7BFEE007A87EE270A0323C3E7AF
:106390004FF0FF33C0E7134A02EB830393ED0C7A0F
:1063A00077EEC77A37EEC00AD3ED087A37EEC00A27
:1063B00000298AD0B1EE400A87E700BFDA0FC9BFD3
:1063C000DA0FC93FFFFFDF3EFFFF973F25AC7C3D63
:1063D0000DF5113E4712DABDA9AAAA3E98CA4C3E55
:1063E000FFFF1B40DCCF0400F4EE600AF1EE10FA70
:1063F00010B5F0EE407A04D6B4EE400AF1EE10FA91
:1064000004D777EEA07AB0EE670A10BD10EE902A9E
:10641000B2F17E5F10EE103A03D1BDE81040FFF7F5
:106420003DBF940F04F0020444EAD37433F00043F8
:1064300008D1022C5DD09FED337A032C08BFF0EE1B
:10644000477AE0E732F0004209D1DFED2F7A9FED85
:106450002F0A14F0010F18BFF0EE407AD3E7B2F123
:10646000FF4F14D1B3F1FF4F04F1FF3407D1022CD9
:1064700042D8274B03EB8404D4ED107AC3E7022CF7
:106480003DD8234B03EB8404D4ED137ABBE702F130
:1064900050619942D9D3B3F1FF4FD6D0A10703D5AC
:1064A00003F1506393420CD387EEA00AB0EEC00A0A
:1064B000FFF7F4FE012CF0EE407A04D1F1EE407AC1
:1064C000A1E7DFED147A022C0AD0002C9BD09FEDBF
:1064D000120A77EE807A9FED110A77EEC07A92E782
:1064E0009FED0D0A77EE807A9FED0C0A70EE677AC9
:1064F00089E7DFED0A7A86E7DFED097A83E7DFEDEA
:10650000057A80E7DB0F49C0DB0FC93FDB0FC9BF4E
:10651000DCCF0400000000002EBDBB33DB0F494080
:10652000DB0F493FDFED0A7A9FED0A7ADFED0A6A59
:1065300010EE277ADFED097A47EE007AB7EE007A9F
:1065400000EE267A67EE807A87EE870A704700BFF2
:106550006BD30DBCBA132F3DAEE534BF75AA2A3EEE
:1065600010EE103A23F00042B2F1465F16DAFDEE6B
:10657000C07A17EE901A39BB431C134306D1F0EED4
:10658000C07AB7EE007A87EE270A7047012800F03C
:10659000A080FFEE007A87EE800A70474D498A425C
:1065A00012DBDFED4D7A002BB8BFB1EE400A37EEBB
:1065B000C00ADFED4A7AB8BFF1EE600A77EEE00A72
:1065C00030EE800ADFED460ADFED466A9FED466A4F
:1065D000DFED465A3F4920EE007A8A4267EE077A9D
:1065E00020EE075A07EEA66ADFED416A46EE276AFB
:1065F0009FED406A06EEA76ADFED3F6A46EE276A26
:106600009FED3E6A06EEA76ADFED3D6A47EEA56A9A
:10661000DFED3C5A46EEA75ADFED3B6A45EEA76A2E
:10662000DFED3A5A46EEA75ADFED396A45EEA76A22
:10663000F0EE667A46EE077AF0EE606A47EE856A1B
:10664000DFED347A46EE870A45EE270A30EE207AEF
:106650001DDB07EE900AF8EEE77A27EE076A37EEC1
:10666000277A9B17C6EE076A03F00203C3F1010302
:1066700076EEE00A30EE600A30EE000A77EEC07A7D
:1066800000EE103AB8EEC00A27EE800A70470128E3
:106690001DD0FFEE007AC7EE876A1F4B17EE102A57
:1066A0001A4006EE102A16EE902A134007EE903A92
:1066B00036EE400AB7EE007A06EE277A70EEC00A90
:1066C00000EEA77A47EE267AB0EE670A7047B0EE82
:1066D000470A704740A12C3FDA0F493F6821223317
:1066E000000000008453D9377AC095385FAE9BB75D
:1066F000B937813948DEBE3A1F37113CD10D5D3DB7
:1067000045F4A338C8261A3A16696B3BA427B33C54
:106710008988083EABAAAA3E00F0FFFF10EE103AAF
:1067200023F00043B3F1485FF7EE006A05DAFDEEAF
:10673000C07A17EE902A002A3BD020EE006AB6EE0F
:10674000007ADFED1D5A1D4A66EE077A9FED1C7A2E
:1067500006EE257A9342DFED1B5A57EE065A9FED5F
:106760001A7A05EE867ADFED195A57EE065A9FED32
:10677000187A05EE867A20EE200A27EE067A17EEC2
:10678000060A04DC77EEC07A36EEE70A7047114A53
:106790009342DABF03F17F4307EE103AB5EE027A77
:1067A00077EEC77A76EEC76A37EEC00A36EEC00AD1
:1067B0007047B0EE660A70474ED747AD9999993E3B
:1067C000F6740F317CF29334010DD037610BB63A79
:1067D000ABAA2A3D0000483F10EE103A23F00043D8
:1067E000B3F1485F04DAFDEEC07A17EE903A4BB38E
:1067F00020EE007ADFED147ADFED146A57EE276A97
:10680000DFED137A46EE877ADFED126A57EE876A7C
:10681000DFED117A20EE076A46EE877ADFED0F6A28
:1068200020B957EE276A06EE860A704766EE277A89
:10683000F6EE005A50EEA57A57EE870A46EE260A83
:1068400030EE600A704700BFD3C92E2F342FD732E5
:106850001BEF3836010D50398988083CABAA2A3E17
:1068600010EE103A23F00042B2F1FF4F70B502D3A0
:1068700000EE000A70BD002AFCD0002B04DA70EE96
:10688000407A87EEA70AF5E713F0FF424FEAE3519B
:1068900029D0C3F3160242F40002CB07A1F17F0016
:1068A00058BF520000234010520019241E464FF0DA
:1068B000807175189542DEBF6E18521B5B18013C43
:1068C0004FEA42024FEA5101F3D112B1013323F0F2
:1068D00001035B1003F17C5303EBC05300EE103A4D
:1068E000C8E75B0001321802FBD5013A891AD0E7EC
:1068F00008B510EE103A23F00042B2F17E5FF0EEE0
:10690000405A10D308D19FED300ADFED307A002BCA
:10691000A8BFB0EE670A08BD70EE405ADFED2B7AD3
:1069200087EEA50AF7E7B2F17C5F11D2B2F14A5FB8
:106930009FED276A44D920EE000AFFF7F3FDDFED53
:10694000257A40EE657A35EEE70A36EE400AE2E750
:10695000002BB7EE000AF6EE007A14DA35EE800A64
:1069600020EE270AB1EEC06AFFF7DCFDDFED197AF1
:1069700050EE067A9FED160A77EE867A30EE670AB9
:1069800030EE000AC7E730EE650A20EE270AB1EEC6
:10699000C05AB0EE407A15EE103A23F47F6323F02C
:1069A0000F0305EE903A05EEE57A75EE257A87EE4F
:1069B000276AFFF7B7FD00EE056A36EE250ADFE726
:1069C000B0EE460AA7E700BFDA0F4940000000001A
:1069D000DA0FC93F6821A23310EE102A08B522F061
:1069E0000043B3F17E5FB0EE406A12D319BF76EE7A
:1069F000467A9FED1F7ADFED1F7A9FED1F7A12BF57
:106A000087EE276A40EE077AB0EE676AB0EE460A74
:106A100008BDB3F17C5F0BD2A3F50003B3F1645F53
:106A2000F4D320EE000AFFF77DFD06EE006AEDE7E5
:106A3000B0EEC06AB7EE000A30EE466AB6EE000A63
:106A400026EE000AF1EEC05AFFF76CFD002A9FED1A
:106A50000B6A40EE255A75EEA55A75EEC65A9FEDA3
:106A6000066A36EE656AB8BFB1EE466ACEE700BF89
:106A70000000000000008003DA0FC93F6821A23344
:106A800010EE901A4B0030B50AD0F4EE600AF1EE29
:106A900010FA05D610EE100AC0F3C752FF2A04D12F
:106AA00060EE200A80EEA00A30BDB3EB400F05D3A4
:106AB000FAD1DFED247A20EE270AF5E75ABB43022C
:106AC000002B25DAC2F1010300FA03F3C1F3C75426
:106AD0004CBB4D02002D23DAC4F10105A940A242AE
:106AE000A3EB010524DC002D01DBE2D02B46D90D00
:106AF00025D0002ACBBFA3F50003C2F1010243EA6F
:106B0000C253D34000F00040034300EE103ACBE7FD
:106B1000013A5B00D4E7C0F3160343F40003D5E762
:106B2000013C6D00D6E7C1F3160141F40001D6E740
:106B3000002D01DBBDD02B465B00013ACFE75B00A7
:106B4000013AD4E70000000031DF70474068704729
:106B500000487047F8CF040000487047F8CF0400A1
:106B6000B0F80500400040F00100704780687047B1
:106B7000007D400040F00100704780687047006968
:106B80007047024B012283F878207047783A002042
:106B90004069704700487047F8CF04000161014820
:106BA000704700BFF8CF0400C1600148704700BFC4
:106BB000F8CF040081600148704700BFF8CF04009F
:106BC000054B93F87900054B03F10802002814BF28
:106BD00018461046704700BF783A002034D00400B1
:106BE000054B93F87A00054B03F10802002814BF07
:106BF00018461046704700BF783A002034D0040091
:106C00000048704744D004004CDF7047004870478C
:106C1000F8CF040043681B68D3F80405400040F037
:106C200001007047436806481A68012151605B798A
:106C3000044A03EB4303134483F87B10704700BFFF
:106C4000F8CF0400783A0020436806481A6801210A
:106C500011605B79044A03EB43031344022283F877
:106C60007B207047F8CF0400783A0020436805493C
:106C700001221A61037A0C2000FB0313024883F8F7
:106C80008C207047783A0020F8CF04004368012236
:106C90001A60037A044A05480C2101FB03230222EF
:106CA00083F88C20704700BF783A0020F8CF0400AA
:106CB000436801225A644368D3F844059040104366
:106CC00070470148704700BFF8CF04000048704784
:106CD000F8CF040000487047F8CF0400007A400065
:106CE00040F001007047007A4009400040F0010088
:106CF00070474068800040F002007047027A044804
:106D0000012393404FF0A042C2F80835704700BFFE
:106D1000F8CF0400027A0448012393404FF0A042C8
:106D2000C2F80835704700BFF8CF0400027A044863
:106D3000012393404FF0A042C2F80C35704700BFCA
:106D4000F8CF0400027A0448012393404FF0A04298
:106D5000C2F80C35704700BFF8CF04000128044B7F
:106D600083BF4A680348C3F8C820D3F8C8007047F7
:106D7000E43E0020F8CF04000128044B83BF4A689A
:106D80000348C3F8C420D3F8C4007047E43E002091
:106D9000F8CF040000487047F8CF0400004870475F
:106DA000F8CF0400034BD3F8C000400040F00100CE
:106DB000704700BF783A002030BF0148704700BFDD
:106DC000F8CF040020BF0148704700BFF8CF04008F
:106DD000024B0348012283F8C4207047783A002010
:106DE000F8CF0400800000F1A040D0F8002722F482
:106DF0004032C0F80027D0F8003743EA0141C0F81C
:106E0000001770470023435082B043580193019B01
:106E100002B0704770B5D0F8103105460C4653B13A
:106E20004FF48871FFF7EEFF63795A0703D52368A3
:106E30000BB101209847D5F814315BB14FF48A713A
:106E40002846FFF7DFFF63791B0703D523680BB1E3
:106E500002209847D5F81C315BB128464FF48E715B
:106E6000FFF7D0FF607910F0100002D1236803B162
:106E70009847D5F8043163B14FF482712846FFF783
:106E8000C1FF0123237123681BB1BDE870400320BB
:106E9000184770BD01490248BCE700BF503B0020C5
:106EA0000020024001490248B4E700BF483B0020EF
:106EB0000010024001490248ACE700BF403B0020FF
:106EC00000C001401F2803DC154BC340DB0724D55D
:106ED000144BD3F8E82082B1420903EB820300F09F
:106EE0001F00D3F8E020012101FA00F022EA00009F
:106EF000C3F8E0000022104670470028FBDB00F0DA
:106F00001F034109012098402031074B43F821001D
:106F1000BFF34F8FBFF36F8FEDE742F20102EAE755
:106F2000FC06FFBD783A002000E100E070B50546A0
:106F300019F0E9FB1E4B834223D16A681D4C13797B
:106F4000106804EBC30393F8CC1093F8CC1093F8BB
:106F5000CC10D0F80461C9B2AEB1012283F8CC20C4
:106F60006D682B79286804EBC30440F3073094F86C
:106F7000CC30FFF7A7FF2A680023C2F8003584F859
:106F8000CC300D4870BD0229EAD10123436013794A
:106F9000116804EBC30393F8CC2093F8CC20D1F80C
:106FA0000401D2B20028D8D1022AF4D0D8E700BF19
:106FB00064D00400783A0020F8CF04002DE9F347AC
:106FC000002406460F46904600F5A0754FF4803920
:106FD000A246A00000F5A07398B22B686BB1D6F85A
:106FE000043309FA04F21A4207D0C5F800A02B684E
:106FF0000193019BD7E9003198470134A04505F181
:107000000405E6D102B0BDE8F08702490248062235
:10701000D4E700BF2C3B002000B0014001490248EA
:107020000622CBE7203B002000A001400149024896
:107030000422C3E7143B002000A00040014902489D
:107040000422BBE7083B00200090004001490248B1
:107050000422B3E7FC3A00200080004010B504464B
:1070600090F90400FFF72EFF236801225A6022687E
:10707000074BC2F848332268C2F808336379054ADF
:1070800003EB43031344002283F87B2010BD00BFB1
:1070900003000F00783A002008B54068FFF7DEFFD4
:1070A000004808BDF8CF04000023435082B0435885
:1070B0000193019B02B0704710B5024600684FF47F
:1070C0008033C0F848331068C0F808335079184B43
:1070D00000EB4000184421F07F4190F87C4010689C
:1070E000C0F84015A4B11068D0F80445601AA14258
:1070F000517901EB41010B4488BF00F1FF1093F877
:107100007D3088BF00F57F40984201DA09480DE0E4
:1071100010684FF4A071FFF7C7FF116806484FF4DD
:107120008033C1F804331268C2F8443310BD00BF85
:10713000783A00200700AD0B0000AD0B284B2DE97D
:10714000F04704460E4691464FF48037002503EB86
:107150008108D4F80433A90001F5A0713B4289B23B
:107160000FD004F5A07353F8253053B1C4F8487319
:107170002046C4F80873FFF797FFD8F8EC30E8B260
:1071800098470135A9454FEA4707E2D1D4F80433BF
:10719000DA070ED5D4F800315BB120464FF4807188
:1071A000FFF782FF0E4B03EB86030420D3F8EC308D
:1071B0009847D4F804339B0710D5D4F804316BB149
:1071C00020464FF48271FFF76FFF054901EB8606F9
:1071D0000520D6F8EC30BDE8F0471847BDE8F08749
:1071E000783A0020014804220221A7E7004002402B
:1071F000014804220121A1E70010014001480322B7
:1072000000219BE700B0004037B5D0F818358A69F7
:10721000DBB28DF807304B6A93423EBF4A699DF856
:107220000740D4544A6A91F82840531C4B620232FA
:107230003CB10C69A2428C6938BF0A61944288BF94
:107240008A610D69954205D9CB689B5CC0F81C35F5
:1072500001200BE08C69944202D991F82030F5E7C7
:10726000AB42F5D3A3422CBF0020012003B030BDB8
:107270002DE9F743D0F804E03B4F9EF804502C2052
:1072800000FB057090F81541002C48D1D0F8F8604B
:1072900016B1012480F815412C20344C15FB00FC5C
:1072A0000CF10C0904EB090844F80920C8E90113A2
:1072B00000FB0573C8F80C1093F816810020B8F194
:1072C000FF0F83F8200118BF012320461EBF4FF097
:1072D000A04403FA08F3C4F80C35DEF800402C2370
:1072E0004FF0000E03FB05734FF00408C4F8088349
:1072F000C4F808E1C3F81CE1D4F808E1CDF800E0D7
:10730000DDF800E071B11378C4F81C35012984BFA1
:107310005378C4F81C3546B10423C4F8043303B0D1
:10732000BDE8F08393F81831EEE700EB0C01D4F8D8
:107330000831002BFBD0C4F80861D4F80831019360
:107340002046019BFFF760FF0028F0D12C2303FBB0
:10735000057595F81621FF2A1FBF012393404FF0B2
:10736000A042C2F80835DAE7783A0020703B0020E6
:107370007EE713B50022C0F80821D0F80831019348
:10738000019BFFF741FFA0B98A7FFF2A1EBF01239F
:1073900093404FF0A042084618BFC2F808350023BA
:1073A0004B770B7250F8083B496802B0BDE81040BB
:1073B000184702B010BD01490148DAE7C83B002078
:1073C0000030024001494FF04020D2E79C3B0020B2
:1073D00001490248CDE700BF703B0020003000406B
:1073E00070B5214C06792C2303FB06430546D3F8E0
:1073F000F83023B1006840F30730FFF763FD2C231A
:1074000003FB06412A68D1F8F81011B10421C2F833
:10741000081303FB064393F81731FF2B1FBF03F537
:10742000E0734FF0A041022041F823000023C2F88E
:1074300000352B680D4A93420DD0B3F1402F0FD089
:1074400002F5003293420DD02C2303FB06440023A7
:1074500084F8143170BD064B00221A601A71F3E7EC
:10746000044BF9E7044BF7E7783A0020003000407E
:10747000F43B0020FC3B0020043C002010B50446F7
:1074800019F041F9034B834202D16068FFF7A8FF6E
:10749000014810BDA0D00400F8CF040000234350E1
:1074A00082B043580193019B02B070472DE9F04729
:1074B0000E78089F9DF824A004460D469846002E9D
:1074C0005FD1D0F82431D2F800909BB14FF4927183
:1074D000FFF7E4FF012363612B70B9454FD1D4F866
:1074E0000431002B4BD04FF482712046FFF7D6FFBA
:1074F00000261DE0D0F81C31FBB14FF48E71FFF770
:10750000CDFFD0F824311BB14FF492712046DFE754
:1075100013689F4207D918F80330C0F81C35136868
:1075200001331360D9E70123BAF1000F03D0C3611F
:107530003046BDE8F0874361CFE7D0F80831002B33
:10754000CBD04FF48471FFF7A9FFD0F82431002B82
:10755000DAD113689F42C0D9D0F8181508F8031083
:107560001368013313607A1E934205D10223C0F8D9
:10757000003201232362B0E79F42FAD1ADE7012632
:10758000D6E74FF49271FFF789FF4FF48E71FFF742
:1075900085FF4FF48471FFF781FFA0E72DE9FF47D6
:1075A0000C4605461E462046354B03934FF4827128
:1075B0009046FFF773FF4FF49271FFF76FFF4FF4A0
:1075C0008E71FFF76BFF4FF48471FFF767FF0023A5
:1075D000012E6B6385F82E3008BF02224FF00103A5
:1075E0000CBFC4F80022C4F80032236223602F6865
:1075F000AFB905F1340A05F12E09039B002B18DC05
:1076000095F82E301BBB1F48039B002B0EDC00237C
:10761000C4F8003505231C48C4F8003506E040F2E4
:107620008623AB60AB681748C4F8043304B0BDE8E8
:10763000F087CDE900674346524649462046FFF7AA
:1076400035FF0028DCD0039B013B0393D5E7D4F83A
:10765000C434C4F8C434002BD5D00C4A0A4813F003
:10766000010F18BF104613F0020F02F1010218BFFC
:10767000104613F0040F064B18BF1846C4E700BFAE
:10768000A08601000000AD0B0100AD0B0000AE0BA9
:107690000200AE0B2DE9FF470C4605461F4620466B
:1076A0003A4B03934FF4827116469DF83080FFF7F2
:1076B000F5FE4FF49271FFF7F1FE4FF48E71FFF774
:1076C000EDFE4FF48471FFF7E9FE0023C4F80032A9
:1076D0006B6385F82E3001232362A3606A6B9742A7
:1076E0001DD9B35CC4F81C356B6B01336B632B681D
:1076F000E3B905F1340A05F12E09039B002B1FDCC9
:1077000095F82E3053BB2248039B002B15DC002339
:10771000C4F8003505231F48C4F800350DE0B8F162
:10772000000F01D0E361E2E76361E0E740F2862306
:10773000AB60AB681648C4F8043304B0BDE8F0870A
:10774000CDE900783346524649462046FFF7AEFE63
:107750000028D5D0039B013B0393CEE7D4F8C43473
:10776000C4F8C434002BCED00B4A0A4813F0010FE2
:1077700018BF104613F0020F02F1010218BF1046A5
:1077800013F0040F054B18BF1846BDE7A086010093
:107790000000AD0B0100AD0B0000AE0B0200AE0B04
:1077A000F0B589B091F82C3001938B6A00934B6A45
:1077B0000C4601F134022E310746FFF777FEE0B99F
:1077C00094F82EC0BCF1000F1ED1207B831E012B2C
:1077D0001AD8626AA3699A4216D1216AE26963697A
:1077E0006262C1F340110328A36284F82C1006D111
:1077F000009120463946FFF74DFF09B0F0BD3946EC
:107800002046FFF7CBFEF8E704F10C060FCE03ADE0
:107810000FC533682B60BCF1000F17D0D7F8C43404
:10782000C7F8C43499070DD501238DF8083000231B
:1078300084F82F30236A5B07DFD4D4E9003102A833
:107840009847DAE75A07F2D50223EEE78DF808C029
:10785000EDE702494FF04020A2E700BF483C00207E
:10786000014902489CE700BF0C3C0020003000406A
:107870002DE9F7439846244BC1F8083390F82F3090
:1078800004460F46154603F0FF0933B183681F48CD
:10789000C1F8043303B0BDE8F083012680F82F60FF
:1078A000C0F82080964600F10C0CBEE80F00ACE852
:1078B0000F00DEF80030CCF800306B68A362EB6894
:1078C00063626B78C7F888352B78B34213D01BB945
:1078D000B8F1000618BF012684F82C606B68EA68CE
:1078E000009639462046FFF7D5FE2368002BD1D1FC
:1078F00084F82F30CEE784F82C906B68EA6839461C
:107900002046FFF74BFEF0E7864204000B00AD0B6C
:10791000F0B5054605276E6887B014462A7AC6F882
:1079200000752D4E0C983C2707FB0262022782F857
:10793000C17110F001072A7AC9B206F5CA7C23D0BA
:10794000012002940024CDE903438DF804008DF852
:1079500005100594C2EB02102346696801AA0CEBDE
:107960008000FFF785FF1D4B98421DD003F10113E6
:1079700098422ED0013398420CBF6FF004046FF090
:107980006D04204607B0F0BD10F0020FCDE90437BA
:10799000CDE902478DF804708DF80510C2EB021096
:1079A00014BF3B462023D8E76B680D492A7AC3F8F9
:1079B0000813D3F8001221F00301C3F800120021CC
:1079C000C3F800153C2303FB0266012386F8C1318E
:1079D000D7E76FF01204D4E7783A00200000AD0B2F
:1079E0008642040010B5254B00F10C0403EB440261
:1079F00092F8102222B993F83922013283F8392201
:107A000003EB4403CA7983F810220A7A83F811221F
:107A10004B788A781B01120202F4E06203F0300313
:107A200013430A7802F003021343CA78120302F4E4
:107A3000805213430A79120402F4E02213434A7974
:107A4000120502F4801213438A79120602F0807242
:107A50001343020102F1804202F5E042000100F10D
:107A60008040C2F8183500F5E040CB790A7AC0F8BA
:107A70001425C0F81035024810BD00BF783A002028
:107A80000000AD0B30B55D4AD2F8043313F4007F2B
:107A90008BB011465ED0D2F82431002B5AD0584B0F
:107AA000002119601B680193019B4FF40173C2F818
:107AB0000833544B93F8291009B9012151604F49FB
:107AC00002228DF81820D1F88024C1F88024099270
:107AD0009A690892DA6807920022C3E9062206A88A
:107AE000D3E900129047454CD4F81C31C3B1454B43
:107AF000196A5A69914244491A466BD293F8280090
:107B000000F0FF05002865D10D600A680492049A10
:107B100099681A6A895C1A6A01321A62C4F81C15DB
:107B2000364AD2F844319BB1384B002119601B68AA
:107B30000693069B334B93F8291009B1012111607C
:107B40009A692AB10022586AD9689A61FEF7E6FA62
:107B50000BB030BDD1F804335B07C4D5D1F8083180
:107B6000002BC0D0274B2A4A9869B0B91060126820
:107B70000292029AD1F818255A6A99699142B2D1B3
:107B8000DA69C2B19A611A69D968DA600022586A62
:107B9000DA615A62FEF7C2FAA5E7002010601268A7
:107BA0000392039A5A6AD1F81805D96888545A6A18
:107BB00001325A62E0E793F82910104A09B901210D
:107BC00051604FF40171C2F808130022586AD96855
:107BD0009A61DFE700230B600968059105995169F7
:107BE00000299DD05169089191688DF8183007914E
:107BF000536106A8D2E90013984791E7002000409E
:107C000024210040783A00201C21004044210040FB
:107C100008210040254B9842F0B508D0B0F1402F24
:107C20003FD003F5003398423DD02148F0BD2148B4
:107C3000EFF3108772B6204BD3F8E86001229EB9AB
:107C40001E4CC3F8E820D4F880501D4A1540C3F8F4
:107C5000E050C4F88020D4F88420C3F8E4204FF02A
:107C6000FF32C4F88420324607B962B6047914B9E9
:107C7000016001210171D3F8E81071B16AB9EFF325
:107C8000108072B60D49D3F8E0500D60D3F8E4507F
:107C90004D60C3F8E82000B962B6002CC5D0094891
:107CA000C4E70948C4E70948C2E700BF0030004004
:107CB0000000AD0BF43B0020783A002000E100E02A
:107CC000FC06FFBD0B00AD0BFC3B0020043C00207C
:107CD000014BD3F88C311847783A0020014BD3F888
:107CE00084311847783A0020014BD3F87C3118478B
:107CF000783A00200368013303600020704710B514
:107D00000446042022F05EFC046010BD38B50D4D21
:107D10000B46002411460C4AC5F84022C5F83C0227
:107D20002246184685F844420AF018F938B9D5F8C1
:107D30004032002BFBD195F84402C0B238BD20463A
:107D4000FCE700BF783A0020F98402000A7A044B6D
:107D500003EB8203D3F8480208B11AF08CB87047DD
:107D6000783A002038B5054614466A68013A012A77
:107D7000084604D821460AF047F8204638BD0122BB
:107D80001A604FF0FF34F8E770B5154642686AB9DB
:107D90000C464E19B44201D1284670BD09F0CEFF01
:107DA0000D2808BF0A2004F8010BF3E701221A602E
:107DB0004FF0FF35F0E74A68014923F017BE00BFD6
:107DC000EC040600014923F011BE00BFE43B0600AD
:107DD000014923F00BBE00BFF13B0600014923F02F
:107DE00005BE00BFFB04060013B50C798A794B79F8
:107DF000012C05D1064902B0BDE8104023F0F6BDC4
:107E0000C9790091034923F0F1FD02B010BD00BF14
:107E10000D050600240506008B698A88DB68024987
:107E2000DB889BB223F0E2BD490506008A88014940
:107E300023F0DCBD7B050600CA88024992B223F01C
:107E4000D5BD00BF93050600014923F0CFBD00BF9B
:107E5000333C06004B6802491A7923F0C7BD00BFC6
:107E6000B10506004B6802495A7923F0BFBD00BF37
:107E7000B90506000A7A014923F0B8BDC705060016
:107E800037B50A7A930003F1A043D3F80047C4F34F
:107E90008104012C12D00A490A4D032C08BF29463F
:107EA000D3F800370091084913F0010F074B18BFB2
:107EB0000B46074923F09AFD03B030BD0549EFE7B3
:107EC000073B0600253B0600163A06003F39060030
:107ED000D1050600183B06000A79014923F086BD4A
:107EE000EB0506000A7A014923F080BDF305060080
:107EF0004B6802491A7923F079BD00BFFB050600E3
:107F000008B519F0B7FC044B003818BF012083F8FE
:107F10005C02024808BD00BF783A0020F8CF040098
:107F200090F90A0014F0D1BE007A14F0CEBE08B564
:107F3000044B05484FF48072C3F8602215F0BCF979
:107F400024F008FE783A0020DCD0040030B585B07B
:107F500009F0F2FF01284FF000030BD10393042135
:107F600003A8FEF7F1FD0028F9D1039820F0404066
:107F700005B030BD104A0193136011680291029957
:107F80000E49012008601D4601A81468002CFCD091
:107F900015601468039401339BB2039CD1F8084523
:107FA00000F8014B042BF0D103F1804303F550435B
:107FB00001221A600198D9E700D1004000D00040AA
:107FC00010B52DED028B0C4619F0A0FB2046B0EE4B
:107FD000408A19F09BFB70EE488AFFF7B7FFC0F3A9
:107FE000160040F07E5007EE100AF7EE007A77EEAA
:107FF000677AB0EE480A08EEA70ABDEC028BBDE82E
:10800000104015F04BB808B5FFF7A0FFC0F31600FD
:1080100040F07E5007EE900AB7EE000ABDE8084037
:1080200037EEC00A15F03AB838B5054619F0F6FA39
:1080300019F020FC041E0EDDFFF788FF90FBF4F31F
:1080400003FB140014F041FE042201462846BDE85B
:10805000384019F0B9BA024815F02EF924F07AFD2B
:1080600018D1040038B50C4619F004FC054620462A
:1080700019F000FC854204460CDCFFF767FF641B27
:10808000013490FBF4F303FB14002844BDE83840AE
:1080900014F01BBE002019F015FE70B504460868E8
:1080A0000E4619F0E7FB012C05460ED1002809DD2C
:1080B000FFF74CFF90FBF5F303FB1500BDE87040A4
:1080C00014F003BE002019F0FDFD706819F0D2FB1A
:1080D000022CA0EB050409D18542F3DAFFF736FF45
:1080E00090FBF4F303FB14002844E7E7B06819F0B1
:1080F000C1FB061E0EDD3444013C94FBF6F4002C5B
:10810000E0DDFFF723FF90FBF4F303FB140006FB15
:108110000050D3E7D6D034440134EEE710B519F05F
:10812000A9FB1E28044600DC10B9002019F0CAFD86
:10813000FFF70CFFC4F120044FF0FF3323FA04F4DF
:108140002040BDE8104014F09BBD08B509F0F4FED6
:10815000400040F0010008BD07B509F0EDFE012820
:108160000CD101A8FEF750FD01980028B8BF0330DC
:10817000401040F0010003B05DF804FB064BD3F85B
:108180000825D3F80805930544BF6FEA80506FEACD
:1081900090504000EDE700BF00C00040F0B58BB04C
:1081A00009F0CAFE08B90AF0FBF806A809F0DCFEDF
:1081B00028B11649164816F031FC24F0CBFC9DF886
:1081C0001C409DF819709DF81A609DF81B509DF891
:1081D0001D309DF81E20059306A81121049223F05E
:1081E0008FFADDE90423CDE9004506A8CDE9026751
:1081F000084923F029FCDDE9071010F051FC044682
:1082000006A81FF047FD20460BB0F0BD0306060090
:1082100054D1040029060600F8B5064620200D4674
:10822000104F22F0CFF907F5DA73044603600820F7
:1082300022F0C8F907F5F8770760A060AB78037102
:108240002B8843712B881B0A8371EB782375EB888D
:10825000A380B388A381A66130692146BDE8F840B8
:1082600013F0CABEDCCF040008B5C860406913F043
:10827000C3FE014808BD00BFF8CF040010B5044696
:108280000846114616F03FFAE06110BD2DE9F047AF
:1082900088B019F0EFFA5E4C5E49A0F59E00A0F59B
:1082A000D05090FBF4F204FB12000028BEBF00F592
:1082B000A83002F1FF3200F5C0703C230727B0FB65
:1082C000F3F4B4FBF3F503FB154503FB1404931C13
:1082D00093FBF7F7C7EBC707DF1B48BF0737002A39
:1082E000BDBF02F50E3202F2B1224FF0FF33002380
:1082F0004FF46166B0FBF6F648F6AC60B2FBF0F006
:10830000042808BF032001FB002C40F2B551424A6B
:108310009CFBF1FEBEF1190F08BF4FF0180E02FBD7
:108320000EC240F26D1192FBF1FCBCF1040F08BFCC
:108330004FF0030C6FF4B67101FB0C2299000B4453
:1083400003EB830300EB8000190100EB800001EBDD
:10835000800101EB8E016144DFF8C4C089B20023C3
:108360001CF9010B824250DADBB203F102095FFA19
:1083700089F9B9F10B0F84BF0A3B5FFA83F909F160
:1083800001095FFA89F9254B09F1FF3098BF01F522
:10839000FA6133F8108088BF01F2D1710132B9F16E
:1083A000020F89B25FFA82FA58FA82F805D90846B4
:1083B000FDF73CFF08B108F10108084614F085FC00
:1083C0000090484614F081FC0190504614F07DFC6A
:1083D0000290304614F079FC0390284614F075FCA6
:1083E0000490204614F071FC0590384614F06DFCA2
:1083F00006901FFA88F014F068FC69460790082080
:108400000FF052F908B0BDE8F087121A0133A7E760
:10841000805101005471FFFF4BFAFFFFDCCF0400D5
:1084200008D204002DE9F04F044689B0002014F072
:10843000A7FBD4F80CA080460024DAF808309C4250
:1084400003D3404609B0BDE8F08F002103200FF0B0
:108450002BF9DAF80C20DFF89CB0155D22440646B3
:10846000537801932027ABF507790293DBF80020BE
:10847000DBF80400039219F0FDF9029B039A80B225
:1084800083420BF1080B19D14FEA920948461FF0BD
:10849000BCFA039048461FF0A3FA817804A823F0A1
:1084A0002FF9039A124904A823F0CEFADDE905104A
:1084B00010F0F6FA814604A81FF0ECFB013FBFB2B2
:1084C000002FD3D1019B5B0043F00103C6E90239C1
:1084D000DAF80C10A31C1944681E16F014F90135C3
:1084E0003061314640462C4413F086FDA4B2A4E727
:1084F0002A09060014D20400F8B5074618200D46D4
:10850000114E22F05FF806F54E7304460360082012
:1085100022F058F806F5F8760660A060AB78037193
:108520002B8843712B881B0A8371AB88A380A3829D
:10853000EB88E382002014F023FB206121463846BB
:10854000BDE8F84090E600BFDCCF0400F8B5064671
:10855000002014F015FB71680A4D890041F00201FA
:10856000044613F049FD1C276B68B34203D1296808
:10857000204613F041FD013F05F10805F4D12046E6
:10858000F8BD00BF50D30400F8B50646002014F033
:10859000F7FAF76804460025737A03F00F03AB423D
:1085A00007EB0511204600D8F8BD13F025FD013575
:1085B000F2E770B5064688B01020154622F002F8A2
:1085C000184B03600446112104A823F099F8296888
:1085D00008784A790B79039048780290887801905E
:1085E000C978009104A8104923F02EFADDE905109E
:1085F00010F056FA606004A81FF04CFB2B79237230
:1086000095F90630A372A968E87916F07CF8E06065
:108610002146706813F0F0FC012009F035FF08B026
:1086200070BD00BF30D404002906060038B50446EA
:10863000084619F01FF90546002014F0A1FA084B6E
:10864000084A60600020C3F86442C3F8682209F059
:108650001BFF284609F0A8FC09F084FC606838BDBF
:10866000783A0020B38502001FB50446084611463B
:108670001A4603AB0193054B009300231DF096FCB3
:10868000082021F09FFF046004B010BD6CD40400EA
:1086900030B587B0164C00940546084611461A4678
:1086A00003AB019303231DF081FC202021F08AFFFE
:1086B0000560039BA4F27442934211D09A0711D132
:1086C0001A68A4F52874A2420CD18360049B002B85
:1086D0000BDC059B002BC8BF43750023C0E90633A4
:1086E00007B030BD034819F0EDFA0375F1E700BF9C
:1086F0006CD40400470606007FB5104D06460846B8
:1087000011461A4602AB019305F5956300930223C7
:108710001DF04CFC182021F055FF1C354FF6FF735F
:108720000446C0E9035506608560C380002014F04C
:1087300027FA6061204604B070BD00BFDCCF0400A2
:108740001FB50A4C084611461A4603AB019304F5BF
:108750009763009301231DF029FC042021F032FFD0
:1087600004F59864046004B010BD00BFDCCF0400C1
:1087700070B588B00446964E0096084611461A46D3
:1087800002AB019301231DF011FC082021F01AFF18
:108790000460029C0546B4B1E30708D414F0030357
:1087A00040F01081236806F1080293420ED10123A4
:1087B0002B71204619F05EF8C0F30720A8712046FF
:1087C00019F058F86871284608B070BD06F14402E7
:1087D000934240F0EC80A3680393E46804E0A008AF
:1087E00003A91FF00BF90446039B062B18D10123A4
:1087F0002B7160791EF060FFC6B26E7120791EF099
:108800005BFF06EB00106871E0781EF055FFC6B202
:10881000AE71A0781EF050FF06EB0010A871D2E7F1
:10882000242B40F0C18002232B7194F823001EF00A
:1088300043FF064694F822001EF03EFF06EB0010B0
:108840008DF8100094F821001EF036FF064694F8CB
:1088500020001EF031FF06EB00108DF81100E07FC4
:108860001EF02AFF0646A07F1EF026FF06EB001032
:108870008DF81200607F1EF01FFF0646207F1EF05D
:108880001BFF06EB00108DF81300E07E1EF014FFB6
:108890000646A07E1EF010FF06EB00108DF81400B7
:1088A000607E1EF009FF0646207E1EF005FF06EBE7
:1088B00000108DF81500A07D1EF0FEFE0646607DBE
:1088C0001EF0FAFE06EB00108DF81600207D1EF05B
:1088D000F3FE0646E07C1EF0EFFE06EB00108DF87E
:1088E0001700607C1EF0E8FE0646207C1EF0E4FEC9
:1088F00006EB00108DF81800E07B1EF0DDFE06464A
:10890000A07B1EF0D9FE06EB00108DF81900207B2D
:108910001EF0D2FE0646E07A1EF0CEFE06EB0010F8
:108920008DF81A00A07A1EF0C7FEC6B28DF81B6043
:10893000607A1EF0C1FE06EB00108DF81B00E07996
:108940001EF0BAFEC6B26E71A0791EF0B5FE06EB3F
:108950000010687160791EF0AFFEC6B2AE7120796A
:108960001EF0AAFE06EB0010A871E0781EF0A4FE2F
:10897000C6B28DF81E60A0781EF09EFE06EB0010B9
:108980008DF81E0060781EF097FEC6B28DF81F604D
:1089900020781EF091FE06EB00108DF81F00E91DF7
:1089A00004A809F035FF0EE70A4819F08BF9A6F57F
:1089B0004376B34209D12379037163794371A37973
:1089C000837100E7022B3FF40AAF0348EDE700BFD5
:1089D000D8D404005E0606004706060030B587B00E
:1089E000154604460122084603A919F0FBF869461A
:1089F0000222284619F0F6F80499019B994202D008
:108A0000054819F05FF92046009B039AFEF730FCF9
:108A1000024807B030BD00BF79060600F8CF040059
:108A20001FB504460122084601A919F0DBF82046CB
:108A3000DDE901210023FEF71BFC014804B010BD55
:108A4000F8CF04007FB50C4605460222606801A9F4
:108A500019F0C8F8032D019E10D1A06818F00AFF84
:108A60000146029A3046FDF737FB019B20680299C8
:108A70001A46FEF7FDFB024804B070BD0021F0E786
:108A8000F8CF04001FB5074C03AB019304F27C53ED
:108A900000930431012301381DF028FA04F11C0071
:108AA00004B010BDDCCF040070B5D1E900468AB037
:108AB00003AB2B4D019308310123023800951DF0C3
:108AC00015FA3046012204A919F08CF8A369A1888F
:108AD000D8680679DDE90432F6B9247DC08814F03F
:108AE000100492B205D080B209F05CF91D480AB0BA
:108AF00070BDADF81C2080B207AAADF81E400893E7
:108B000009F024FA0028F1D082B21749A5F20C40EE
:108B100015F084FF24F01EF89DF80C40C0880993DE
:108B2000002C0CBF0226012684F001030F4C8DF8A7
:108B30001C60ADF81E10002607A980B28DF81D60DC
:108B4000ADF82060ADF8222084F86C3209F000FA0C
:108B50000028D9D194F86C32002BFBD0C6E700BFB7
:108B600060D50400F8CF040099060600783A00208A
:108B700038B583690D4DDB680446D888A1880C4B55
:108B8000C5F87042002280B2C5F8743209F0E2F9EB
:108B900030B182B20749084815F040FF23F0DAFFF0
:108BA000D5F87432002BFBD1E06938BD783A00204B
:108BB0007D820200C706060054D10400F7B511F00B
:108BC00003040D4603D10A68124B9A4202D01248A0
:108BD00019F078F801AA69460069CDE9004418F057
:108BE0006FFDDDE90021E3B2934202D30B4803B0ED
:108BF000F0BD51F82300B5F80560836893F804C010
:108C0000B3F805702B799C4501D1B742EFD0013400
:108C1000E9E700BFCCD1040047060600F8CF040006
:108C20002DE9F7436A4601A918F04AFD019AA2F11D
:108C30000803012B05D95149514815F0EFFE23F0E7
:108C400089FF009B186818F015FE009B05465868C0
:108C500018F010FE009B8146986818F00BFE009BF0
:108C60000646D86818F006FE009B0746186918F0FB
:108C700001FE009B0446586918F0FCFD3C2390FB64
:108C8000F3F8444403FB1808B8F1000FB8BF04F12F
:108C9000FF3494FBF3F003FB10440744B8BF98443F
:108CA000002C4FF01800B8BF07F1FF3797FBF0F327
:108CB00000FB1377B8BF3C34002FB8BF3F1809F151
:108CC000FF394FF00C001E4499FBF0F10D4400FBFE
:108CD0001191B8BF06F1FF360029BCBF091805F194
:108CE000FF350131002E36DD2846FDF7B3FA864206
:108CF0003BD824484FF461635F4340443C2303FB6B
:108D000004044A1E204B33F812200229164404D9C9
:108D10002846FDF78BFA00B10136A5F2CD706FF44D
:108D2000C863EA184FF4C873B2FBF3F2642302EB92
:108D30009002A5F26D70B0FBF3F0144B121A2744A9
:108D40001348324403FB057300FB023013F098FF15
:108D500003B0BDE8F083013904BF05F1FF350C21F4
:108D60002846FDF777FA0644BCE701310D29A6EB4A
:108D7000000604BF01350121B6E700BFF406060076
:108D800068D5040080569C50DCCF04008033E1019C
:108D90008051010038B583888B81054608460C4612
:108DA00009F070F800B1A5612869214613F024F993
:108DB000004838BDF8CF04007FB50646164D009533
:108DC000084611461A4602AB019302231DF0EEF845
:108DD000182021F0F7FB0660029B0446A3B113F0B4
:108DE000030617D11A68A5F57675AA4212D18360D9
:108DF0009DF80C30012B0AD1837109F0E1FCE6608B
:108E0000304613F0BDFE2061204604B070BD03481B
:108E100018F058FF0248FBE7A4D504002507060018
:108E2000470606007FB510290546089E184619D149
:108E3000EA80104B2C699C4212D04C00520044F046
:108E4000010442F00102019402928EB1314612F007
:108E5000B5FB0390286901AB0022032118F0A8FF9D
:108E600004B070BD112904BF4FF6FF73EB80E0E73B
:108E70000393EFE7F8CF04007FB5054618462C6949
:108E80000D4B089E9C4212D04C00520044F001044D
:108E900042F00102019402925EB1314612F08EFB63
:108EA0000390286901AB0022032118F081FF04B070
:108EB00070BD0393F5E700BFF8CF04002DE9F04340
:108EC000D1E900748FB0012304AD964E3B71083197
:108ED00001950096944D02381DF008F8934BC5F8A3
:108EE0007C3204F00303022BDDF81090C5F8787291
:108EF0000BD0002B40F098802368983EB34240F09E
:108F00009380A3680593E66804E005A9A0081EF015
:108F100075FD0646059B112B40F08680062021F04A
:108F200051FB0446307C1EF0C7FB5FFA80F884F8E2
:108F30000080F07B1EF0C0FB08EB00102070707BFF
:108F40001EF0BAFB5FFA80F884F80180307B1EF0D7
:108F5000B3FB08EB00106070B07A1EF0ADFB5FFA57
:108F600080F884F80280707A1EF0A6FB08EB0010EF
:108F7000A070F0791EF0A0FB5FFA80F884F80380FF
:108F8000B0791EF099FB08EB0010E07030791EF00C
:108F900093FB5FFA80F884F80480F0781EF08CFB75
:108FA00008EB0010207170781EF086FB5FFA80F8E5
:108FB00084F8058030781EF07FFB08EB00106071AC
:108FC00008F0BAFF08B909F0EBF90E2200210AA84F
:108FD000FDF782F804238DF82830A023ADF82A305D
:108FE0000B934FF0000369F347038DF818302368A3
:108FF000CDF81930A388ADF81D304FF013124FF0A3
:10900000C873CDE908230AA9012308AA06A808F015
:10901000A7FF30B182B24649464815F0FFFC23F065
:1090200099FD20461EF00CFD4FF6FF72FB889BB2A7
:109030009342FBD0404BC5F88032F988012289B2B7
:109040003846FEF763FE0026044678697CB905AA17
:1090500003A9059418F034FBDFF8E4802646039A50
:10906000A3B29A4219D835480FB0BDE8F0830AAAD6
:1090700008A90A9618F024FB089B0A9AF98803F1BC
:109080008043013B89B252F82330DA8A013292B22E
:109090003846FEF73BFE0446D7E7059AF88852F8B3
:1090A0002390C5F88492D9F81430C5F888820AA9AB
:1090B00080B20A9385F88C6208F04EFF80BBD5F829
:1090C0008832002BFBD195F88C324BB3089608AA56
:1090D000D9F8100006A918F0F3FA069B089A03F1D4
:1090E0008043013B52F82330B9F816209B880133A6
:1090F0009BB29A4214D9F888C5F884920AA980B222
:10910000C5F88882ADF82830ADF82A2085F88C6241
:1091100008F022FF20B9D5F88832002BFBD1D2E726
:1091200001349CE7B4D50400783A0020258E020073
:109130003A07060054D10400836B0200F8CF040004
:109140001982020008B508F07FFE014808BD00BF83
:10915000F8CF04002DE9F04790B051F8047B334E6E
:10916000002406AB3C7101380193009604231CF0E7
:10917000BDFEDDE9065A214618220AA8A6F2C4540B
:10918000DDE90898FCF7A8FFA54214D005F0030319
:10919000022B08D07BB92B68A03EB3420BD1AB6841
:1091A0000393E86803E003A9A8081EF027FC039BCB
:1091B0000A908DF82C30A2450CD0002303AA02A9F6
:1091C0005046039318F07CFA029B1BB1039A0C9251
:1091D0008DF83430A1450AD0012203A9484618F081
:1091E00001FD049B1BB1039A0E928DF83C300123C4
:1091F000A0458DF83D300CD0404618F053F940B9E9
:109200008DF83D000AA809F071F9094810B0BDE8D1
:10921000F087084B084AC3F87C22084AC3F87872E2
:10922000C3F89072C3F89422ECE700BFBCD50400E9
:10923000F8CF0400783A0020258E0200798E0200D3
:1092400030B589B01F4C00940546084611461A46B1
:1092500003AB019305231CF049FE0498A4F2E454E7
:10926000A0421BD018F006FBC4B2069848B118F013
:1092700019F9297A01234FF0A0428B4080B1C2F83E
:1092800008359DF80C20101E18BF0120012A0AD9AC
:109290000D490E4815F0C2FB23F05CFC0024E4E706
:1092A000C2F80C35EDE72B7A42EA400203F5E07391
:1092B00007484FF0A04142EA840241F8232009B058
:1092C00030BD00BFDCD504005A07060004D60400F8
:1092D000F8CF040010B40C4613460A1D411E206846
:1092E0005DF8044BACE770B50D46044611462846C0
:1092F00002221E4618F080FC9DB9237A4FF0A0424E
:1093000003F5E07152F82110C9074CBFD2F80405EB
:10931000D2F81005D840400000F0020040F00100F3
:1093200070BD306818F0BEF8217A01234FF0A042DA
:109330008B4018B1C2F808350248F1E7C2F80C3585
:10934000FAE700BFF8CF040010B40C460B1D002252
:10935000411E20685DF8044BC5E77FB505464868A7
:109360000C4618F087FA0146684622F0DAF9032D18
:10937000029E13D1A06818F07DFA0146019A30468A
:10938000FCF7AAFE029B019920681A46FDF770FFC0
:10939000694603480EF048FD04B070BD0021EDE7BA
:1093A00040D60400F8B5C5690E68083DAE420F46C8
:1093B00013D3B6FBF5F0013823F0FCFD841CA6EBBB
:1093C0008404B4FBF5F4204623F0F4FDA6EB800002
:1093D00004FB15053D602046F8BD0020FCE72DE9A3
:1093E000F043012314460022C4E90623144FDFF89A
:1093F0005480DFF854908BB005460E4604F11802F5
:109400001046059208F086FB059A10B16FF0010036
:1094100012E0336808937368099307ABCDE90273D0
:10942000CDE900804B4621462846079507F080FE8F
:109430000028E3D0831CE1D00BB0BDE8F08300BF6F
:10944000DFC6020008000020FF03F07F10B50446CD
:10945000084607F043FE236818442060002010BD32
:1094600008B508F083FD014808BD00BFF8CF04002F
:10947000F8B5174C032704F5AC75261F54F8040FF4
:10948000030719D1D6F88831984215D3D6F88C2124
:10949000904211D2C01A48BF0F300011D6F87CC1DB
:1094A000810800F003031CF801E05B004EFA03F2B0
:1094B00002F00302012A02D0A542DFD1F8BD07FA6B
:1094C00003F343EA0E030CF801301EF06BFCF3E7E4
:1094D000E83E00202D492E482DE9F8432D4B2E4D16
:1094E00021F00F01CA1AD200A0FB02024FEA522853
:1094F0004FEA8806073603EB0807A1EB8810D20A6B
:10950000C5E96087C5E962014FEAD609C5F87C3133
:1095100007D09400184622460021FCF7DDFD0346E3
:10952000234418F0020F1CBF002223F8022B18F06E
:10953000010F1CBF00221A7017F003011DD176091C
:1095400005D0B60038463246FCF7C6FD374419F060
:10955000020F1CBF002327F8023B19F0010F01D0B6
:1095600000233B7000234FF480314FF0FF32C5E9F8
:10957000A513C5E9A723BDE8F883B9F1000FF1D021
:109580004A4638460021FCF7A7FDEBE700E0002043
:10959000F32C23FA88410020E43E00204FF0A04342
:1095A000D3F810359B0407D4044B93F8C4301BB98F
:1095B000034B044AC3F80026704700BF783A0020E6
:1095C000000001403546526E70B5184C0138050157
:1095D00004EB0010D0F8AC66306820B104F5D4611B
:1095E000294418F048FC2C447368D4F8A406026897
:1095F000ABB94FF48031C2F848130368D3F80423A1
:10960000D20309D5C3F808130068D0F840311BB164
:109610004FF4A071FDF748FDBDE87040BEE7D2F8F9
:1096200004151944FDF748FDF6E700BFDCCF040040
:109630000220C9E70120C7E77FB5054610200C4688
:10964000164620F0BFFF0023C0E90034084B029308
:10965000084B0190039304AB13E90E00846034447B
:10966000C460284604B0BDE8704022F0A7BD00BF2A
:1096700087720400557A040010B4C268938BD28BB1
:109680001A44838F5C1C134442798487042A04BFE4
:10969000426C42F8231023225DF8044B01211BF099
:1096A00009BF70B5446C04F10053046A023B04EB3B
:1096B000C3040546D4E9020184E8030066785EB974
:1096C0006B6CB5F842201A44013A3146284619F02D
:1096D0004BFC01236370666028464FF0FF31BDE804
:1096E000704019F06DBB70B5037C0446154623B974
:1096F000826D938BD28B13441D44E368042B04BF0B
:10970000236D43F825102046B4F84020002119F0BD
:109710002BFC0022E06D1146032319F002FC00220D
:10972000E06D2B461146BDE8704019F005BC73B5DD
:1097300004461E460D46019219F02AFB019AE06D7F
:10974000002119F089FCE06D3246012119F084FCFA
:10975000E06D0322294602B0BDE8704019F052BC0A
:10976000054BDA6AD168054A914214BFDB6B2C3392
:1097700000229A60704700BFE43E0020D5E4030059
:109780001FB50223009303AB0DF0D4FD039B23B15F
:109790000B2B08D0184618F00FFA400040F00100DB
:1097A00005B05DF804FB0148FAE700BFF8CF0400FC
:1097B00010B5CCB2024610F8013B0BB1A342F9D16F
:1097C0008B420CBF1046002010BDF8B504460E4673
:1097D00007463D4617F8011B09B9281BF8BD30465E
:1097E000FFF7E6FF0028F4D0F7E7F8B504460E4689
:1097F00007463D4617F8011B09B9281BF8BD30463E
:10980000FFF7D6FF0028F4D1F7E710B5024613465C
:1098100012F8014B002CFAD1013911F8012F0AB9C5
:109820001A7010BD03F8012BF7E70139034611F850
:10983000012F0AB91A70704703F8012BF7E710B52A
:10984000013810F8013F63B111F8014BA4B10AB916
:10985000104610BDA34202F1FF320AD3F1D9012212
:10986000F6E7002AF4D00B781BB91A1E18BF0122A4
:10987000EEE74FF0FF32EBE7002AF6D1E8E70138D8
:10988000013910F8013F11F8012F4BB11AB9181E18
:1098900018BF01207047934204D3F2D901207047CA
:1098A000002AF4D04FF0FF307047034600201A5CC6
:1098B00002B970470130FAE7F8B50F7804460D4653
:1098C0004FB10846FFF7F1FF064620463946FFF73D
:1098D0006FFF044608B92046F8BD32462946FFF717
:1098E000AEFF0028F7D00134EFE710B542B183187E
:1098F000024610F8014BA14202D08342F8D1002267
:10990000104610BD10B50244904201D1002010BD98
:1099100010F8014B11F8013B9C4202D3F4D901200D
:10992000F5E74FF0FF30F2E740EA0103F0B59C079E
:1099300009D0431E0A44914200D1F0BD11F8014BF9
:1099400003F8014FF7E722F00303051F9608CC1830
:10995000A1420DD1910744BF34F8021B20F8261014
:10996000034448BF0233D20744BF22781A70E4E7A9
:1099700051F8047B45F8047FEAE72DE9F04F87B002
:10998000DDE91149139EDFF8A0B007468846154669
:1099900003F1FF3A0EB9304642E02B68E868023323
:1099A00016D1D5E901120A44944211D28C420FD348
:1099B000121BB242A4EB010128BF324601444846C3
:1099C0000592FFF7B1FF059A91441444B61AE1E7F6
:1099D0006FF001032B60BB6E5B69B4FBF3F203FB1A
:1099E0001242A21A6A60D7F868C0DCF814E00AEBE9
:1099F0000E032344B3FBFEF10EFB11315B1ADCF8BE
:109A0000281000928B4228BF0B46CDE90103AB60C2
:109A10005A46109B4146384607F0D8FE0028B9DA6E
:109A200007B0BDE8F08F00BF00FCF7FF814210B423
:109A300010D28B1898420DD2531E194403449A1A1F
:109A40009A4202D15DF8044B704711F8014903F8BE
:109A50000149F5E75DF8044BFFF766BF70B546684E
:109A6000B142044628BF31460D46012120F045FD94
:109A7000A368681C5919721B1844FFF7D7FF636865
:109A8000A06801336360284470BD10EE103AC3F340
:109A9000C7527F3A162A0ADC002A03DA03F0004391
:109AA00003607047094941FA02F2134206D103F0FC
:109AB000004380ED000A00EE103A704723EA0203EB
:109AC00007EE903A036030EE670A7047FFFF7F00B1
:109AD00010EE103A23F000420021B2F1FF4F016076
:109AE00019DAC2B113F0FF4F0AD1DFED0B7A60EE45
:109AF000277A6FF0180117EE903A016023F00042C8
:109B00000168D21523F0FF437E3A43F07C530A44A8
:109B100000EE103A026070470000004C10EE103A60
:109B2000C3F3C752952A18DCDFED0C7ADB0F15BFA3
:109B300030EE670A30EE270A30EE270A30EE670A69
:109B4000B5EE400AF1EE10FA07D19FED050ADFED00
:109B5000057A002B08BFB0EE670A70470000004B83
:109B6000000000800000000010EE101AC1F3C7537F
:109B7000763B1F2B82B013DC082BD8BF01234FF09C
:109B8000FF3222FA03F319420AD0DFED067A30EEF3
:109B9000270A21EA03038DED010A019A00EE103A2B
:109BA00002B070470000807B10EE103AC3F3C7523A
:109BB000A2F17F01162982B013DC002913DB124ABF
:109BC0000A411A420DD0DFED117A30EE270A002B40
:109BD0008DED010AB8BF9B18019923EA020300EE3C
:109BE000103A02B07047DFED097A30EE270A002BF9
:109BF0008DED000A009A04DA5A00054A18BF134690
:109C0000EDE70023EBE700BFFFFF7F000000807B54
:109C1000000080BF10EE103AC3F3C752A2F17F01DB
:109C2000162982B013DC002913DB124A0A411A42BA
:109C30000DD0DFED117A30EE270A002B8DED010AF1
:109C4000A8BF9B18019923EA020300EE103A02B064
:109C50007047DFED097A30EE270A002B8DED000A00
:109C6000009A04DB5A0018BF4FF07E53EDE74FF027
:109C70000043EAE7FFFF7F000000807B10EE102A20
:109C8000A2F50003B3F1FF4F5BD3530006D160EEA2
:109C9000007ABFEE007A87EE270A7047002A04DABE
:109CA00030EE407ADFED2C7AF5E7DFED2C7A60EECE
:109CB000277A6FF0180117EE902A294BDFED296AF9
:109CC000DFED294ADFED293A1344294AC3F3160090
:109CD000024407EE902AB7EE000A37EEC07AF0EEA3
:109CE000007A77EE277ADB0DC7EE275A7F3B0B44CD
:109CF000B6EE000A25EEA54A27EE000A24EE045A25
:109D000007EE903A45EE264ADFED1A6A45EE236AE1
:109D100020EE076A66EE846A44EE856AF8EEE77A1A
:109D20009FED150A76EE866A27EE800A06EEA50AF2
:109D300030EE460A30EE070A9FED107A07EE870AEA
:109D40007047B2F1FF4F06D2B2F17E5F01D0002121
:109D5000B3E79FED010A7047000000000000004CCF
:109D60000DFB4A00269E783E13CECC3EEEE9913E96
:109D7000F304353FAAAA2A3FD1F717378071313F44
:109D800010EE102A6F4822F00043834282B04FEA5F
:109D9000D27111D9B3F1FF4F7BD8002940F0CF80A9
:109DA000DFED697AB4EEE70AF1EE10FA49DDDFED96
:109DB000677A20EE270A6CE0654883425ED9654ADF
:109DC00093423ED89FED647AA1BB30EE477ADFED37
:109DD000637A012337EE670A37EE407A37EE677A07
:109DE000F6EE006A20EE265A9FED5D6ADFED5D5AC1
:109DF00060EE057A57EE865AB7EE006AF0EE464AF4
:109E000045EEA74AF0EE645AF0EE084A45EE654A80
:109E100035EEE45AF1EE085A40EE645AF0EE654A27
:109E2000C5EE245A65EEA75ABBBB50EE257A30EE3C
:109E3000670A2EE030EE077ADFED4B7A4FF0FF3302
:109E4000C8E7B6EE007A0029FEEE007A08BFF0EE11
:109E5000477A9FED467ADFED416A40EE077A9FED43
:109E60003E7AFDEEE77A17EE903AF8EEE77A07EEE3
:109E7000C70A67EEA67AB0EE407AABE7B3F14C5F63
:109E800009D212F0FF4F04D160EE007ACDED017AD5
:109E9000019B02B070470023A2E775EEC75A5A1C17
:109EA00015EE807A77EE677A06D130EE670A50EECB
:109EB000266AB0EE660AECE7012B14D1BDEE007AFB
:109EC000B4EEC70AF1EE10FA06D530EE260A37EEE8
:109ED000C00AF8EE007A6CE730EE670A30EE000A4E
:109EE00030EE060AD5E703F17F02D205382B06EEE5
:109EF000902A10D930EE670A802B70EE067A05BFE3
:109F00009FED120A77EEA77A26EEA70A27EE800ABF
:109F100030EE460ABDE7C3F17F02D20507EE102AF4
:109F2000162BCDBF37EE877A30EE670A36EE476ADA
:109F300030EE470A30EE060A20EE260AA9E7BFEE09
:109F4000000AA6E743B895418071B1420000007F46
:109F50001872B13E9115853F8071313FD1F71737A7
:109F60001030CF3A6888083DD1F717B73BAAB83F01
:109F70007F2815DDDFED167AA0F17F037F2B20EE21
:109F8000270A06DDA0F1FE037F2B20EE270AA8BFDB
:109F90007F237F33DB0507EE903A20EE270A7047D8
:109FA00010F17E0F12DADFED0B7A00F17E0313F170
:109FB0007E0F20EE270AECDA00F1FC036FF07D0241
:109FC000934220EE270AB8BF1346E2E70346E0E7D4
:109FD0000000007F000080002DE9F04FB2F1030A7D
:109FE000D5B048BF02F1040A02914FEAEA014D1CC4
:109FF0009B468046581EEB0003930C1A18AE0BF1DB
:10A0000009079FEDC67AC14B9146A2EBC50504EB4B
:10A01000070EB446002CA4BF53F8242007EE902A64
:10A0200004F10104ACBFF8EEE77AF0EE477A74452C
:10A03000E6EC017AEED108EB8B030CEB8B04019379
:10A040000DF5807EDFEDB57AA4464646F6EC016A52
:10A05000019B3CED017AB34246EE877AF6D101309E
:10A06000B842EEEC017A04F10404EBD1A748DFED2D
:10A07000A85A9FEDA85A00EB810A0926F0EE656AFE
:10A08000B0EE456A54AB03EB860104AF40AB11ED73
:10A09000140A384603EB8601344660EE257A013C0B
:10A0A000FDEEE77AF8EEE77A07EEC50ABDEEC00AE4
:10A0B000A0EC010A31ED010A37EE800AEDD1284605
:10A0C000FFF756FFB0EE407AB4EE000A27EE000A22
:10A0D000FFF76AFDF2EE007A00EE677A002DFDEEE2
:10A0E000C77AB8EEE70A17EE901A37EE407A37DDF6
:10A0F00006F1FF3C04ABC5F1080E53F82C4044FABE
:10A100000EF0014400FA0EF0241AC5F1070043F8DE
:10A110002C400441002C31DD002301319E4657F8CC
:10A12000040B002B65D120B1C0F5807047F8040CFA
:10A1300001230EF1010E7645F1D1002D03DD012D35
:10A140005CD0022D63D0022C18D1B7EE000A30EE9D
:10A15000477A9BB12846FFF70BFF37EE407A0DE0B8
:10A1600005D1701E04AB53F820402412D2E7F6EE5E
:10A17000007AB4EEE77AF1EE10FA38DAB5EE407A0A
:10A18000F1EE10FA6FD1771E0023BC46BCF1080F28
:10A1900044D1002B4CD10CA8012150F80449002CCB
:10A1A00043D006EB0B0418AB701C03EB84040E4485
:10A1B000B0423FF767AF5AF8203007EE903AF8EE1A
:10A1C000E77A4146E4EC017ADFED547A2746F1EC78
:10A1D000014A019B37ED017A8B4244EE877AF6D132
:10A1E00040AB03EB8001C1ED007A0130E0E70224CF
:10A1F00092E7C0F1FF0047F8040C9AE7771E04AA23
:10A2000052F8270000F07F0042F827009BE7771EF6
:10A2100004AA52F8270000F03F00F5E704AA52F81C
:10A220002C000CF1FF3C0343B0E70131B5E7013FDF
:10A2300004AB083D53F82730002BF8D02846B7EE82
:10A24000000AFFF795FE3B46002B39DA3A4600201C
:10A25000002AC0F2888040AB03EB82052E4EDFED72
:10A260002F7A002348E0039BB0EE470AA3EB0900D6
:10A27000FFF77EFEB4EEC60AF1EE10FA17DB60EED1
:10A28000267A04AAFDEEE77A771CF8EEE77A08351D
:10A2900007EEC60AFDEEE77ABDEEC00A10EE103AF0
:10A2A00042F8263017EE903A42F82730C6E7BDEE66
:10A2B000C00A04AA10EE103A374642F82630BDE72D
:10A2C00004A840AA50F82300019007EE900AF8EE87
:10A2D000E77A02EB830267EE807A013B20EE260AE2
:10A2E000C2ED007AB0E7F6EC016AB5EC017A013311
:10A2F0000A2B46EE877A01D09842F4DA54AB03EB8E
:10A30000800343ED287A013A0130A1E79CD604008E
:10A310000000803B00008043B4D90400000000002E
:10A320002CAA02EB8302D2ED007A37EE277A013BAA
:10A33000002BF5DADCB1F1EE477A029BC3ED007A2F
:10A34000DDED2C7A77EEC77A2DAA01239F4211DA30
:10A350000CB1F1EE677A029B01F00700C3ED017AC0
:10A3600055B0BDE8F08F1FED137A3B46E0E7F0EE05
:10A37000477AE2E7B2EC017A013377EE877AE5E7D4
:10A380007FB510EE105A834A25F0004393420446ED
:10A3900005DC002380ED000A4360002020E07E4AB7
:10A3A000934238DC002DDFED7D7A7D4A23F00F03E8
:10A3B00018DD934230EE670A09BFDFED7A7ADFEDF0
:10A3C0007A7A30EE670ADFED797A30EE677A30EE2E
:10A3D000470A80ED007A30EE670A80ED010A01201D
:10A3E00004B070BD934230EE270A09BFDFED6D7AED
:10A3F000DFED6D7A30EE270ADFED6C7A30EE277AEA
:10A4000030EE470A80ED007A30EE270A80ED010A2F
:10A410004FF0FF30E4E7664A934271DC9FED657AC6
:10A42000B0EEC00AF6EE007A40EE077AFDEEE77A6B
:10A43000F8EEE76A17EE900ADFED587A06EEE70AC3
:10A440001F28DFED597A66EEA77A30EE677A17EEAD
:10A45000101A1DDC584E06EB800623F0FF02D6F8DA
:10A46000006AB24214D0216094ED007A30EE470ABF
:10A47000002D30EE670A84ED010AB1DAB1EE477AB9
:10A48000B1EE400A84ED007A84ED010A4042A7E76C
:10A49000C1F3C756DA15C6EBD353082BE3DDDFED66
:10A4A000417A66EEA77A30EE677A30EE470A30EEF0
:10A4B000670ADFED3E7A16EEA70A37EE406AF0EE45
:10A4C000407A16EE101AC1F3C753D31A192B04DCC5
:10A4D00084ED006AB0EE470AC6E7DFED387A66EE33
:10A4E000A77A37EE670A37EE407A77EE677A9FED04
:10A4F000347A56EE877A30EE677A84ED007AB3E7E5
:10A50000B3F1FF4F06DB30EE400A80ED010A80ED2B
:10A51000000A42E7DA15863AA3EBC25307EE903AF7
:10A52000BDEEE77ADFED276AB8EEC77A77EEC77A35
:10A530008DED017A67EEA67ABDEEE77AB8EEC77ABE
:10A5400077EEC77A8DED027A67EEA67AF5EE407A5D
:10A55000F1EE10FACDED037A1AD1B5EE407AF1EEB4
:10A5600010FA14BF02230123214601A8FFF734FD8E
:10A57000002DBFF635AFD4ED007AF1EE677AC4ED69
:10A58000007AD4ED017AF1EE677AC4ED017A7DE7C5
:10A590000323E9E7D80F493FE3CB1640800FC93FBB
:10A5A000D00FC93F004435374344353708A3852EC3
:10A5B000800F494384F9223FDCCF040000A3852E9D
:10A5C00032318D240000804310EE103A07B5114A55
:10A5D00023F00043934207DCDFED0F0A012003B0B4
:10A5E0005DF804EBFBF7BCBFB3F1FF4F04DB30EECB
:10A5F000400A03B05DF804FB6846FFF7C1FE400067
:10A6000000F00200DDED010A9DED000AC0F101003D
:10A61000E5E700BFDA0F493F0000000010EE103AF6
:10A6200007B51E4A23F00043934206DCDFED1C0A07
:10A6300003B05DF804EBFCF771B8B3F1FF4F04DB36
:10A6400030EE400A03B05DF804FB6846FFF798FE61
:10A6500000F00300012807D002280ED0A0B9DDEDDC
:10A66000010A9DED000AE3E7DDED010A9DED000A18
:10A67000FCF7B2F8B1EE400AE4E7DDED010A9DED2A
:10A68000000AFCF74BF8F5E7DDED010A9DED000A45
:10A69000012003B05DF804EBFCF79EB8D80F493FEA
:10A6A0000000000010EE103A07B51F4A23F00043E7
:10A6B000934207DCDFED1D0A002003B05DF804EBD8
:10A6C000FCF78AB8B3F1FF4F04DB30EE400A03B069
:10A6D0005DF804FB6846FFF753FE00F00300012815
:10A6E00008D002280FD0C0B9DDED010A9DED000AA7
:10A6F0000120E2E7DDED010A9DED000A03B05DF8FF
:10A7000004EBFCF70BB8DDED010A9DED000A01201A
:10A71000FCF762F8B1EE400AD9E7DDED010A9DEDE4
:10A72000000AFBF7FBFFF5E7D80F493F00000000E8
:10A730009FED0A7AF0EEC06AF4EE476AF1EE10FA85
:10A74000F0EE407A06D8B5EE400AF1EE10FA01D0EC
:10A75000FFF70EBCB0EE670A704700BFFFFF7F7FB8
:10A7600010EE103A3F49DA0F23F000438B4282B0DB
:10A770001BD901F5313101F5E4718B4206D93AB9A3
:10A78000DFED397A20EE270A02B07047002A5BD04D
:10A790009FED367AC7EE007ACDED007A0099344904
:10A7A0008B4251D99FED330AEEE733498B4236D9BC
:10A7B00032498B4248D8C2F10100801A07EE900A54
:10A7C0009FED2F7AF8EEE77AF0EE406A47EEC76A1F
:10A7D0009FED2C0A67EE807A36EEE70A20EE006ADB
:10A7E000DFED295A9FED297A06EE257AF0EE405AE0
:10A7F00047EE465AB0EE006A20EE250A36EE656A4C
:10A8000080EE067AB7EE000A77EE677A77EEA67AE0
:10A8100037EE800A0028B7D002B0FFF7A9BBB3F12A
:10A82000645F0BD8DFED107A70EE277ACDED017AF8
:10A83000F7EE007A019B30EE270AA5E7DFED0D7AEF
:10A84000F0EE406A0020C9E711489FED127A00EB54
:10A850008200D0ED007A40EE077AFDEEE77A17EE3F
:10A86000900AABE74FACAE420000007F01000080D1
:10A87000B4F1CF42000000001872B13E9215853F3E
:10A880000072313F8EBEBF35155235BB8FAA2A3EAE
:10A8900060DA04003BAAB83F10EE103A10B51C1E57
:10A8A000214B24F00044B0EE404AF6EE003ABEEEF2
:10A8B000000AB8BFF0EE403A9C4200EE104A21D8A0
:10A8C000FFF75EFAB4F17E5F13D2B4F1665F0DD389
:10A8D000B7EE004A70EE007A20EE007A30EE040AFD
:10A8E00087EE004A37EEC44A24EE234AB0EE440A0B
:10A8F00010BDB7EE007A30EE077AC0EE077A37EE79
:10A90000804AF1E7DFED097A30EE670AFFF728FFAA
:10A910009FED074A20EE040A73EEA33A20EE040AE4
:10A9200020EE234AE2E700BF1672B142BCE32243A5
:10A930000000007A10EE103A07B5204A23F00043D9
:10A94000934200EE103A1DD8B3F1665FB7EE004AAD
:10A950000BD2DFED1B7A30EE270A8DED010A019B49
:10A96000B0EE440A03B05DF804FBFFF709FA20EEED
:10A97000007A30EE040A30EE000AC7EE007A37EEB5
:10A98000840AEFE70F4A93420CD8FFF7E9FEB7EECF
:10A99000007AC7EE007A37EE800AF6EE007A20EEF3
:10A9A000270ADFE7DFED087A30EE670AFFF7D8FE07
:10A9B000DFED067A20EE270AF1E700BF1672313F7D
:10A9C0000000807B1672B142BCE322430000007A93
:10A9D00010EE901A31F0004070B5B0EE407A00F001
:10A9E000718210EE104AB4F17E5F00F06B8224F0A9
:10A9F0000043B3F1FF4F02DCB0F1FF4F02DD37EE51
:10AA0000200A70BD002C1FDAB0F1974F2CDAB0F19C
:10AA10007E5FC0F26082C515C5F1960540FA05F269
:10AA200002FA05F5854240F0568202F00102C2F1B9
:10AA30000202B0F17E5F20D1002980F24982F7EE58
:10AA4000007A87EE870ADCE70022B0F1FF4FF0D1F1
:10AA5000B3F17E5F00F0368208DD9FED9A0A00298F
:10AA6000A8BFB0EE600ACCE70222EEE79BB1002956
:10AA700080F22B82B1EE600AC3E7B1F1804F02D1C0
:10AA800027EE070ABDE7B1F17C5F04D1002C02DBA1
:10AA9000B1EEC70AB5E7B0EEC70A23B124F04045CE
:10AAA000B5F17E5F15D10029BCBFF7EE007A87EEC5
:10AAB000800A002CA5DAA3F17E53134304D170EE73
:10AAC000407A87EEA70A9CE7012A9AD1B1EE400AA4
:10AAD00097E7002C19DA22B937EE477A87EE070A92
:10AAE0008FE7012AB7EE006AFFEE007A08BFB0EEEA
:10AAF000676AB0F19A4F40F30D81734A934207DCC5
:10AB000000290ADADFED717A09E0B7EE006AF0E7B2
:10AB10006F4A934208DD0029F4DCDFED6E7A26EE01
:10AB2000270A20EE270A6CE7F7EE007A30EE670A74
:10AB3000DFED697ADFED696AB5EE007A40EE477ABB
:10AB4000B6EE007A07EEC07A60EE007A60EE266A12
:10AB500027EE277ADFED627A67EE277A9FED617A3A
:10AB600050EE077A36EEA77A17EE103A23F47F6399
:10AB700023F00F0307EE103A77EE666A77EEE67A77
:10AB800021F47F6121F00F0107EE101A30EEC77A31
:10AB900067EEA00A07EE903A47EE270A07EE101A72
:10ABA00067EE877A30EEA77A17EE102AB2F1864F59
:10ABB000A8DC40F06F81DFED4C6A37EE677A70EE0B
:10ABC000A66AF4EEC76AF1EE10FA9BDC22F00043AD
:10ABD000B3F17C5F40F37181DB15A3F17E004FF48C
:10ABE0000003034113444148C3F3C7517F3908416F
:10ABF00023EA000407EE104AC3F3160040F40000F5
:10AC0000C1F117010841002A77EEC77AB8BF404268
:10AC100037EEA07ADFED365A17EE103A23F4FF43F1
:10AC200023F07F0306EE903A76EEE77A9FED317AD5
:10AC300070EEE70ADFED307A26EE877A66EEA77AC5
:10AC4000DFED2E6A40EEA67ADFED2D6A37EE270A99
:10AC500030EE477A77EEC77A20EE007A40EE277A18
:10AC600057EE265ADFED276A45EE876ADFED265A52
:10AC700056EE875ADFED256A45EE876AF0EE405AB8
:10AC800046EEC75AF0EE006AB0EE657A77EE666A75
:10AC900060EE255A85EEA67A77EE677A37EEC00A1F
:10ACA000F7EE007A37EEC00A10EE103A03EBC0530D
:10ACB000B3F5000F80F20381FFF75AF920EE060A80
:10ACC0009FE600BF00000000F7FF7F3FCAF2497116
:10ACD0000700803F6042A20DABAAAA3E00AAB83F7F
:10ACE0003BAAB83F70A5EC363CAA3833FFFF7F0083
:10ACF0000EEADD350072313F8CBEBF351872313F30
:10AD00004CBB313355B38A38610B363BABAA2A3E74
:10AD10000000804B14F0FF4F01BF5FED037A60EE3F
:10AD2000277A6FF0170217EE903A4FEAE35618BFF2
:10AD300000227F3E1644694AC3F31603934243F050
:10AD40007E5506DD664A934240F3A2800136A5F5A2
:10AD500000050020634C644A9FED644A04EB8003C5
:10AD600093ED005A07EE905A75EE275AF7EE004A17
:10AD700084EEA57A77EEC56A66EE874A14EE903ABD
:10AD8000134003EE903A5A4B03EA650343F0005335
:10AD900003F5800303EB405305EE903A43EEE56A7A
:10ADA00075EEC55A9FED535A77EEE55A64EEA47AD4
:10ADB00045EEE36A66EE876A9FED4F7A07EE874AB3
:10ADC00004EE275A9FED4D4A05EE274A9FED4C5A57
:10ADD00004EE275A9FED4B4A05EE274A34EEA35A5C
:10ADE00067EEA77A25EE265A04EE275A23EEA34AE9
:10ADF000F0EE457AB0EE085A34EE057A37EE277A4F
:10AE000017EE103A134007EE103A37EE455A63EE4C
:10AE1000875A35EE445A26EE877A77EEC57ADFED0B
:10AE20003A6A07EEA47A75EE877A17EE903A1340E5
:10AE300007EE903A77EEE55A27EEA65A77EE656A66
:10AE40009FED327A27EE877ADFED317A06EEA77A28
:10AE500004EB8003D3ED027AD3ED044A37EE277A70
:10AE600007EE906A75EE075AF8EEE76A75EEA45A97
:10AE700075EEA67A17EE903A134007EE903A77EE09
:10AE8000E66A76EEE46A76EEC56A77EE667A77E68B
:10AE900001205FE71F4B22F0004199423FF73DAE92
:10AEA0001D4B9A427FF492AE37EE677AB4EEE07AA9
:10AEB000F1EE10FAFFF68AAE2FE60020A8E600EECB
:10AEC000103AFBE6B7EE000A9BE59FED140A98E501
:10AED000B0EE470A95E50022ABE500BF71C41C0047
:10AEE000D6B35D0068DA040000F0FFFF55326C3E17
:10AEF00000F0FFDF05A38B3E42F1533EABAAAA3E12
:10AF0000B76DDB3E9A99193F0040763FC623F6B8ED
:10AF10004F38763F00001643000016C300000000C3
:10AF2000B5EEC00AF1EE10FAF8EE007A48BFB1EEC5
:10AF3000400A10B520EE270A4CBF01240024FEF77A
:10AF40001FFFB0EE007A30EE077AC0EE077A0CB938
:10AF5000F1EE677AB0EE670A10BD08B5FEF78EFE17
:10AF6000DFED027A80EE270A08BD00BF8E5D134038
:10AF70000C4B1B78062B10D10B4B1B681A070CD1FE
:10AF80000A4B186800F0F003302B08D000F0E00006
:10AF9000A0F14003584258417047002070470120FB
:10AFA000704700BFE00F00F0E40F00F0E80F00F082
:10AFB000094B1B78062B0CD1084B1B681A0708D1CC
:10AFC000074B186800F0F000A0F1300358425841D8
:10AFD00070470020704700BFE00F00F0E40F00F062
:10AFE000E80F00F0BFF34F8F0549064BCA6802F423
:10AFF000E0621343CB60BFF34F8F00BFFDE700BF9C
:10B0000000ED00E00400FA0508B54FF080434E2241
:10B01000C3F81C25FFF7E6FF08B54FF08043A822D0
:10B02000C3F81C25FFF7DEFF08B5FFF7DBFFC107FC
:10B03000F8B5044611D5C0F347012C480023142568
:10B0400005FB03F2861896F8AC6A8E4202D12848B6
:10B050001044F8BD01331C2BF2D1A20703D12268A2
:10B06000244B9A423FD0244E244DD6F8C400A84227
:10B070002F460ED0214616F0FEFEA84209D08307C7
:10B0800004D1036805F6B845AB42E2D01C4816F07F
:10B0900019FED6F8C800B84213D11A48002221463A
:10B0A0001AF02EFEC0B91848002221461AF028FED8
:10B0B00028B14068002838BF00200028C9D11348B3
:10B0C000E5E70022214604301AF01AFE0028E4D0F9
:10B0D00040680028BDD1E0E74068002838BF002064
:10B0E0000028B6D1DFE72046B3E700BFDCCF04007D
:10B0F00080DA0400B0DC0400E43E0020F8CF040055
:10B100006F070600F0DC040000DD04009507060070
:10B1100010B5084B03EB8003400040F00100D3F86A
:10B12000CC40FFF784FF01462046BDE8104016F0F2
:10B13000A2BE00BFE43E0020F0B58BB00846334D00
:10B14000009511461A4603AB019307231AF02EFF10
:10B150000398411CA5F5536555D0C20706D4830753
:10B160000CD1026805F204539A4207D116F082FB13
:10B170000228044604D9264816F0A4FD4FF0FF34F7
:10B18000244F04980C266643374430B1FFF74FFF35
:10B190002E44027AD6F8703D1A700598B0B116F0B8
:10B1A00069FB0C2303FB0453D3F8703D9871069898
:10B1B000A0B116F05FFB0C2303FB0454D4F8704DD0
:10B1C000A080079860B9322363700CE00C2303FB66
:10B1D00004533222D3F8703D9A71E8E70E48CBE76A
:10B1E00016F048FB6070089808B116F043FB6080C9
:10B1F000099828B116F03EFBE07138460BB0F0BD5F
:10B200000123E371F9E705F11C07F6E70CDD040003
:10B21000B007060044DD0400C2070600F0B50D4685
:10B220001E46144685B00E4A2146284616F0E4FC18
:10B230003068FFF7FCFE012D074600D86CB106EB25
:10B2400085030294E40044F007040393321D01AB2C
:10B25000691E38460194FDF7F3FF384605B0F0BD8E
:10B26000FFFF030010B586B00846264C0094114637
:10B270001A4602AB019301231AF098FE029810F0CF
:10B28000010FA4F68C5406D1820728D1026804F27B
:10B2900004539A4223D116F0EDFA07282BD804EB79
:10B2A000C004C30094F8980DFF2824D0164C1C4409
:10B2B0004FF0817303930023ADF810308DF81230F6
:10B2C0008DF81430421C114B8DF81320D3F8F4354F
:10B2D0000F4B93F81C3283B1204606B010BDFFF728
:10B2E000A6FE837A9B0703D58068C0F30430D4E7B9
:10B2F000084816F0E7FC0848FBE703A9FCF772FBD7
:10B30000EAE700BF68DD040070DD04000070004063
:10B31000783A0020E9070600FD0706002DE9F0470E
:10B320002F4E86B0084611461A4603AB019306F627
:10B33000D453009303231AF039FE039816F09AFAB7
:10B3400001284AD80C2303FB00F40498FFF76FFE92
:10B3500090F808800598FFF76AFE3319214993F8A1
:10B36000F42D06F6EC5727443C2404FB021494F811
:10B37000C15175BBD3F8F09D90F808A006EB82068A
:10B380004846D6F8041EFCF745FC174B984220D1DE
:10B390004FF0A04308F5E07140F20C62C4F89C51F4
:10B3A000C4E9655784F8C35184F8C45184F8CC517A
:10B3B00043F821200AF5E07143F821204FF0CD63D6
:10B3C000C9F80885C9F80CA5C9F82435012384F803
:10B3D000C131384606B0BDE8F087044816F072FC6B
:10B3E000DCCF0400783A00200000AD0B0F08060007
:10B3F000704700F1804000F5C040002382B0036038
:10B4000003680193019B02B07047F0B587B0634DAC
:10B4100051F8044B009503AB0193013803231AF054
:10B4200065FD2B46247A33F8182FADF808209B7859
:10B430008DF80A30049B012B02D18DF8083001E011
:10B44000022BFAD0564D03238DF809302B1993F9AE
:10B450005030002B40DB2B1993F95020072A61DD77
:10B4600000212046FBF7BEFC2A1992F9503092F8D1
:10B470005020072A9FBF4B4A03F5A273002142F8D0
:10B48000231004F00702012393404749E208885C37
:10B4900018420AD004F5E0704FF0A046022746F8A3
:10B4A0002070885C20EA03038B542B194FF0FF3285
:10B4B00093F85030072B05EB830188BF5B19CA62F4
:10B4C00088BF83F868202B19FF2202A9204683F841
:10B4D0005020FAF733FE06E002A92046FAF72EFEC6
:10B4E000324B9842B7D0324B039A03EB84032E19A8
:10B4F000C3F8CC2096F95020072A2DDD154495F885
:10B5000068309B09032B22D14FF0A043D3F81015CC
:10B51000E14001F0010102312046FBF763FC2548C0
:10B5200007B0F0BDD3B2072B9ED8930003F1804340
:10B5300003F5C043D3F8101521F00101C3F810152D
:10B54000012303FA02F2174BC3F808238CE7012BFF
:10B550000CBF02210321DFE7D3B2072BDFD8930012
:10B5600003F1804303F5C04302F14000D3F8101506
:10B57000800041F00101C3F8101580B2FFF739FFD8
:10B5800096F9503005EB8305EB6A002BC7D0054BCD
:10B59000012505FA02F2C3F80423C0E7E8DD040040
:10B5A000783A002000600040E93A00200500AD0B29
:10B5B000E43E0020F8CF04002DE9FF470024584D59
:10B5C00001944FF48072012102F1804303F5C043DE
:10B5D00090B21B68012B06D1D5F804330B4202D080
:10B5E000FFF707FF0C430432B2F5907F4FEA4101A9
:10B5F000EAD14C4B1B68012B0AD14FF4BE70FFF708
:10B60000F8FE4FF0A04344F00044D3F81035019306
:10B6100014F0FF0F1AD0444F01260025344210D0F9
:10B62000AB0003F1804303F5C043D3F81005D3F812
:10B63000101557F8253023B1C1F30141C0F30420A0
:10B6400098470135082D4FEA4606E7D1002C63DA0A
:10B650004FF0FF330022CDE90232344F4FF00109A1
:10B660000DF10C0897F9703097F87040013324F011
:10B67000C00551D004AA02EBD50104F0070311F86C
:10B68000082C09FA03F31A424FEAD50044D07A197C
:10B69000A40992F9502007EB8202D66A3EB9032C26
:10B6A0003AD118F800201A4308F8002001E0032CD2
:10B6B000F7D005F5E0724FF0A04011F80C1C50F8DF
:10B6C00022201942C2F3014205D0022A24D1032CC0
:10B6D00020D1214604E0032A1ED1032C1AD10221D5
:10B6E0002846FBF77FFB3EB14FF0010A2146284672
:10B6F000B047BAF1000F0FD04FF0A043019AD3F832
:10B700001035934208D00193039B0293AAE74FF0B0
:10B71000000AEBE7002EFAD104B0BDE8F08700BFC5
:10B72000006000407C610040A43A0020783A00208C
:10B730001F2805DC1D4BC340DA0734D500280EDB7B
:10B7400000F1604303F5614393F800335B09EC2299
:10B7500042FA03F3DB0707D442F2020315E0144B6D
:10B7600000F00F029B5CF1E7124AD2F8E83073B1A7
:10B77000430902EB830200F01F01D2F8E030012000
:10B7800088401843C2F8E00000231846704700289C
:10B79000FBDB4109012200F01F0002FA00F0064A1B
:10B7A00042F82100F1E742F20103EEE7FC06FFBD9B
:10B7B00014ED00E0783A002000E100E01F2803DCEF
:10B7C000104BC340DA0717D5072918D8EC230B41D3
:10B7D000DB0714D50028A7BF00F1604000F56140E9
:10B7E00000F00F00084B4FEA4111C9B2B4BF195421
:10B7F00080F800130020704742F20100704742F2C7
:10B8000002007047FC06FFBD14ED00E02DE9F04793
:10B81000564E07794FF02C0808FB0768054698F844
:10B8200014A10C469146BAF1000F40F09B80504B9A
:10B83000006803EB8703D3F8281EFCF7EBF94D4BA8
:10B84000984240F09180C8E93EA9237B2178012BE2
:10B850004FF0A0424FF0010303FA01F394BFC2F886
:10B860000C35C2F8083523784FF0A04103F5E0739A
:10B87000012241F823206378FF2B1FBF9A40C1F8B3
:10B880000C2503F5E0724FF0030C18BF41F822C0FD
:10B89000A17808BF4FF0FF33FF291FBF01F5E07CFF
:10B8A0004FF0A0424FF0040E42F82CE02A7994F8B1
:10B8B00002C04FF02C0E0EFB026208BF4FF0FF31AA
:10B8C00082F817C194F803C0BCF1FF0F0DD001221C
:10B8D00002FA0CF24FF0A04C4FF0030ECCF8082502
:10B8E000E27802F5E0724CF822E02A7994F803C07D
:10B8F0004FF02C0E0EFB026282F816C12A6894F8F3
:10B9000000C0C2F808C5C2F80C35C2F81015A3680B
:10B91000C2F82435637B217B003B18BF0123022939
:10B920001AD003291BD0012901D143F00203C2F828
:10B9300054352B7964792C2101FB036301FB0766E5
:10B9400083F818410123C2F80035002286F815213A
:10B9500086F81431BDE8F08743F00403E7E743F0CD
:10B960000603E4E70448F5E70448F3E7783A0020E3
:10B97000DCCF04000000AD0B0500AD0B0B00AD0BE0
:10B9800010B504460A6883682948824224DC4FF0D7
:10B9900000729A6048688A68A368002842D1002A29
:10B9A0003ED11A73A368FF225A710B69A268003B4B
:10B9B00018BF01235373D4E901012246FFF726FF84
:10B9C0001C4B984233D16068FBF70AFDD4E90101B2
:10B9D0002246BDE8104019E71748824202DC4FF0CA
:10B9E0008062D6E71548824202DC4FF00062D0E761
:10B9F0001348824202DC4FF08052CAE7114882426B
:10BA000002DC4FF00052C4E70F48824202DC4FF0E4
:10BA10008042BEE70D488242EDDC4FF00042B8E7BD
:10BA20000122BEE70AB90222BBE70322B9E710BD33
:10BA300048E801000500AD0B90D0030020A10700ED
:10BA400040420F0080841E0000093D0000127A0071
:10BA500070B588B051F8045B0A4C009403AE05231E
:10BA6000013801961AF042FA284614F04CFEA4F56B
:10BA70005764844203D131462846FFF781FF0248CC
:10BA800008B070BD10DE0400F8CF040030B58DB0F2
:10BA900008462B4C009411461A4603AB0193092328
:10BAA0001AF084FA0398431CA4F65C6444D000F0B6
:10BAB0000303022B05D06BB9026804F5A8639A4210
:10BAC00008D10CF00DF81F49FDF7D9FE68B31E48E8
:10BAD00016F0F8F815F0CEFE0228F8D80C2202FB7A
